S3150800000000640020A10200089D530008D947000893
S315080000109953000869080008AD7A00080000000036
S315080000200000000000000000000000004F56000815
S315080000307309000800000000AB5300085156000879
S31508000040BB020008BB020008BB020008BB0200088E
S31508000050BB020008BB02000875090008BB020008BD
S31508000060BB0200087B09000881090008BB020008DA
S31508000070130900081F090008BB0200082B0900081D
S31508000080BB020008BB020008BB020008BB0200084E
S315080000906B08000877080008BB02000887090008F3
S315080000A0BB020008BB020008BB020008BB0200082E
S315080000B0BB020008BB0200080D570008BB02000877
S315080000C0BB020008BB020008BB020008BB0200080E
S315080000D0BB020008AB5F0008BB020008B75F000858
S315080000E0BB020008BB020008BB020008BB020008EE
S315080000F0BB020008BB020008BB020008BB020008DE
S31508000100BB020008BB02000819570008BB0200081A
S31508000110BB020008BB020008BB020008BB020008BD
S31508000120BB02000837090008430900084F09000800
S31508000130BB020008BB020008BB020008BB0200089D
S31508000140830800088F080008BB0200089F530008B0
S315080001505B09000867090008BB020008C35F0008BE
S31508000160BB020008BB020008BB020008BB0200086D
S31508000170BB020008BB020008BB0200080000000022
S31508000180BB020008BB02000800F002F800F078F88D
S3150800019014A696E8000CB244B344DA4501D100F03F
S315080001A06FF8BAE80F000FA696E83000A5EB04052D
S315080001B004EB0607AAEB0704A7F101074FEA151592
S315080001C04FEA3414A4F10104AC4201D300F058F804
S315080001D013F0010F18BFFB1A43F0010300F001F8F2
S315080001E0DBE71847F0EC000010ED00000A444FF07A
S315080001F0000C10F8013B13F0070408BF10F8014B78
S315080002001D1108BF10F8015B641E05D010F8016BBC
S31508000210641E01F8016BF9D113F0080F1EBF10F820
S31508000220014BAD1C0C1B09D16D1E58BF01F801CB43
S31508000230FAD505E014F8016B01F8016B6D1EF9D5C6
S315080002409142D6D37047000070470000002300246F
S3150800025000250026103A28BF78C1FBD8520728BFC8
S3150800026030C148BF0B6070471FB50EF022FD9DE8F0
S31508000270030000F0E5F900F0B1F91FBD10B510BD97
S3150800028000F076FA1146FFF7EFFF0DF099FB00F044
S3150800029094FA03B4FFF7F2FF03BC00F039FA000042
S315080002A00948804709480047FEE7FEE7FEE7FEE7FC
S315080002B0FEE7FEE7FEE7FEE7FEE7FEE70448054938
S315080002C0054A064B70470000FB56000889010008DE
S315080002D0004600200064002000550020005500203C
S315080002E070B5A0FB0140B4F1805170F1000024BF45
S315080002F0002070BD204600F007F805001CBF214607
S3150800030000F020F9284670BD70B5064600F07CF965
S31508000310056806F10B0020F00704B4429CBF0020D4
S3150800032070BD2B466A68BAB11068A04210D304F1B2
S31508000330080188423CBF5068586007D351681019B5
S3150800034041601168091B016058601460101D70BD7A
S3150800035013465268002AE7D12146284600F05CF980
S315080003600028DED170BD53EA020C00F069802DE941
S31508000370F04B4FF00006002B1FBFB3FA83F503FAC4
S3150800038005F424FA05F65E4012BF1643B2FA82F562
S3150800039002FA05F4C5F120051EBF22FA05FC44EA57
S315080003A00C04203556EA044C4FEA144418BF641C62
S315080003B04FF000084FF00009904271EB030C39D357
S315080003C0002919BFB1FA81F701FA07F6B0FA80F7E2
S315080003D000FA07F6C7F120071EBF20FA07FC46EA0F
S315080003E00C062037B6FBF4FCA7EB0507103F07F011
S315080003F01F0BCBF120062CFA06F60CFA0BFB44BFB2
S31508000400B3460026202FA4BF5E464FF0000B5BEADA
S31508000410060C08BF4FF0010B19EB0B0948EB060851
S31508000420ABFB027C06FB02CC0BFB03CCC01B71EBBF
S315080004300C01C1E70B46024641464846BDE8F08B2B
S3150800044013B5084318BF4FF0FF300146AFF30080DD
S31508000450BDE81C407047032A40F2308010F0030CB8
S3150800046000F0158011F8013BBCF1020F624498BFF9
S3150800047011F801CB00F8013B38BF11F8013BA2F196
S31508000480040298BF00F801CB38BF00F8013B11F011
S31508000490030300F02580083AC0F0088051F8043BB1
S315080004A0083A51F804CBA0E80810F5E7121D5CBF1E
S315080004B051F8043B40F8043BAFF30080D20724BF51
S315080004C011F8013B11F801CB48BF11F8012B24BFE5
S315080004D000F8013B00F801CB48BF00F8012B704734
S315080004E010B5203AC0F00B80B1E81850A0E81850B3
S315080004F0B1E81850A0E81850203ABFF4F5AF5FEA03
S31508000500027C24BFB1E81850A0E8185044BF18C9A7
S3150800051018C0BDE810405FEA827C24BF51F8043B4E
S3150800052040F8043B08BF7047D20728BF31F8023BA2
S3150800053048BF11F8012B28BF20F8023B48BF00F836
S31508000540012B70474FF000020429C0F0128010F00A
S31508000550030C00F01B80CCF1040CBCF1020F18BF91
S3150800056000F8012BA8BF20F8022BA1EB0C0100F024
S315080005700DB85FEAC17C24BF00F8012B00F8012BF7
S3150800058048BF00F8012B70474FF0000200B513462C
S3150800059094469646203922BFA0E80C50A0E80C5095
S315080005A0B1F12001BFF4F7AF090728BFA0E80C5046
S315080005B048BF0CC05DF804EB890028BF40F8042B3F
S315080005C008BF704748BF20F8022B11F0804F18BFAC
S315080005D000F8012B704770477047704708487CB58C
S315080005E07844009007487844009C0546019004E04A
S315080005F02046016808448047241DAC42F8D17CBDDA
S3150800060010E9000012E9000000487047A001002028
S31508000610704770477047704738B504460A46002049
S315080006206946AFF30080002808BF38BD0246009926
S31508000630204600F07BF8012038BD012000F090B874
S31508000640F8B5AFF30080054600200C460C2000BF25
S315080006500646A819A0420DD9324669460020AFF3CE
S315080006600080070008BF00F07BF80098A04218BF7A
S315080006700546C419FFF7C8FF05600746F01D20F0B8
S3150800068007004619284600F00AF8B44208BFF8BD24
S31508000690A21B31463868BDE8F84000F047B800218B
S315080006A00160416070470C20704770B50446051F0D
S315080006B0FFF7AAFF0068002C14BF446870BD002C21
S315080006C018BFAC423CBF20466468F8D301680A18D4
S315080006D0AA4218BF456003D12A680546114401603D
S315080006E028684119A1421CBF6C6070BD61686960C9
S315080006F021680844286070BD10B500F013F800683A
S3150800070010BD10B5044600F00DF8046010BD0000D9
S3150800071001491820ABBEFEE72600020000487047D4
S315080007209801002000487047980100200346406859
S315080007308C46002818BF88423CBF03464068F8D359
S3150800074018681844884207D00CF1030020F0070007
S31508000750001D411A521A0146081D0A60FFF7A5BF77
S3150800076010B500F039F8BDE8104000F02FB8704712
S315080007707546FFF7D3FFAE4605006946534620F097
S315080007800700854618B020B5FFF798FDBDE820405C
S315080007904FF000064FF000074FF000084FF0000B2F
S315080007A0AC46ACE8C009ACE8C009ACE8C009ACE89E
S315080007B0C00921F007018D46704710B50446AFF30E
S315080007C000802046BDE81040FFF763BD002801D031
S315080007D0FFF79EBF7047000010B5012805D000211D
S315080007E003A000F021F8012010BD09A1F8E70000D8
S315080007F053494752544D454D3A204F7574206F66FC
S315080008002068656170206D656D6F72790000000063
S315080008103A2048656170206D656D6F727920636F47
S31508000820727275707465640070B505460C460A20C8
S3150800083000E06D1C00F011F835B128780028F8D1D1
S3150800084002E0641C00F009F814B120780028F8D1F9
S31508000850BDE870400A20AFF3008008B569468DF8F8
S3150800086000000320ABBE08BDFEE743F67C20C2F2BB
S31508000870000000F0E9B943F67C20C2F2000000F05F
S31508000880E3B943F6A420C2F2000000F0DDB943F64E
S31508000890A420C2F2000000F0D7B90020704700205B
S315080008A0704710B543F2A074C2F2000441F628411D
S315080008B0C2F200012046002205F03BFD41F2284124
S315080008C0C2F20001204605F027FD002010BD70B5D4
S315080008D043F2A0760546C2F200060C463046294683
S315080008E005F01AFD304605F0F2FC40F2783622682B
S315080008F0C2F2000606F130002946FFF7ACFD216872
S31508000900726E2846A6F860109047002070BD002039
S31508000910704743F6AC40C2F2000000F073BC43F6E1
S31508000920CC20C2F2000000F06DBC43F62C30C2F2B7
S31508000930000000F067BC43F60C50C2F2000000F05D
S3150800094061BC43F68C30C2F2000000F05BBC43F693
S31508000950EC30C2F2000000F055BC43F64C40C2F23F
S31508000960000000F04FBC43F66C50C2F2000000F0E5
S3150800097049BC7047012000F012BE082000F00FBEE7
S31508000980102000F00CBE202000F009BE72B600BF91
S31508000990FEE790F82020013A012A04D8006800F101
S315080009A01402002004E000F1240201204FF4802103
S315080009B0136819431160704710B590F820E0D0F815
S315080009C000C0AEF1010EBEF1010FDCF808E010D848
S315080009D01EF0E05F13D0CEF3016E012000FA0EF090
S315080009E018608B688BB14868CC6844EAC00003433A
S315080009F00FE000F1240101204FF4802223E000F1EA
S31508000A00240101204FF400121DE00868CB6843EA70
S31508000A1040530CEB0E10C0F880310B69C0F88431D6
S31508000A20097D012905D100F5C2710B6843F480736D
S31508000A300B605168C0F88C11126800F5C071C0F8D7
S31508000A408821002001220B681A430A6010BD90F81D
S31508000A502020013A012A30D8B0B546F20060C4F227
S31508000A600000026842F001020260026822F47C5229
S31508000A700260D1F814E0CC694A6A0368012C43EA9B
S31508000A80022202600EF01F024FF0010303FA02F27F
S31508000A90C3696FEA020C23EA0203C36113D02CBBB5
S31508000AA0C36803EA0C03C360CB688C8844EA034333
S31508000AB000EBCE0423640B4611E0416A41F4802121
S31508000AC0416201207047C3681343C3600B688C8872
S31508000AD044EA034300EBCE04236401F10C038C685B
S31508000AE01B8843EA044300EBCE04636443688D69BC
S31508000AF043EA0204D1F810E0096A002D08BF03EAA8
S31508000B000C0444604369BEF1000F43EA020408BFBF
S31508000B1003EA0C040129446102D1C1691143C16188
S31508000B20016821F0010101600020B0BD704710B5D1
S31508000B3090F82040013C012C77D8D0F800C0002955
S31508000B400CBFDCF80C40DCF81040A40773D00CEBA3
S31508000B50011CDCF8B0410CF5D87E14F0040494604E
S31508000B60DCF8B04119BFE4085460640D1460DEF87F
S31508000B7000400CF5DA7E04F00204D460DCF8B441D7
S31508000B8024075ABFDEF8004004F00F040824146155
S31508000B90DEF800400029C4F307249461DEF800401B
S31508000BA04FEA14445461DCF8B8211A70026802EB63
S31508000BB00112D2F8B8214FEA12225A70026802EBE3
S31508000BC00112D2F8B8214FEA12429A70026802EB73
S31508000BD00112D2F8B8214FEA1262DA70026802EB03
S31508000BE00112D2F8BC211A71026802EB0112D2F87E
S31508000BF0BC214FEA12225A71026802EB0112D2F89E
S31508000C00BC214FEA12429A71026802EB0112D2F82D
S31508000C10BC214FEA1262DA7100680CBF00F10C01C0
S31508000C2000F11001002020220AE000F12401012031
S31508000C304FF4802204E000F1240101204FF4001251
S31508000C400B681A430A6010BD2DE9F04F81B00446BF
S31508000C5000684669D0F804908768D0F80CB0D0F8D8
S31508000C6010A0D0F81880F10701D1002549E0F9074E
S31508000C700ED00121BA07816007D478071DD438073A
S31508000C8021D4204600F064FA02E0204600F061FA1A
S31508000C900025F8051CD520684FF48071BA058160D7
S31508000CA007D478050CD4380510D4204600F052FA3B
S31508000CB00EE0204600F04FFA0AE04FF40065E8E738
S31508000CC005F5005504E04FF48055E2E705F5804543
S31508000CD0F80316D520684FF48031BA03816007D42B
S31508000CE0780309D438030AD4204600F035FA08E018
S31508000CF0204600F032FA04E005F5004501E005F566
S31508000D008035300707D51BF0100004D0206845F45D
S31508000D1000751021C160700708D51BF0080005D0C2
S31508000D2020680821C160204600F096F9B00706D56C
S31508000D302068C068800702D0204600F08EF9700649
S31508000D4007D51AF0100004D0206845F480651021F4
S31508000D500161B00608D51AF0080005D020680821F8
S31508000D600161204600F09FF9F00606D52068006963
S31508000D70800702D0204600F097F9B00308D519F08D
S31508000D80100005D0206810214160204600F0B2F915
S31508000D90F00308D519F0080005D02068082141603D
S31508000DA0204600F0DBF9300440D55FEA49703AD5B1
S31508000DB006F4807008EA102028435FEA8871014625
S31508000DC048BF41F00201B20558BF01465FEA4870C4
S31508000DD00D4648BF45F00405700558BF0D46300559
S31508000DE021D518F070001ED010380009052815D82E
S31508000DF0DFE800F00306090C0F1245F008050DE0C0
S31508000E0045F010050AE045F0200507E045F04005E5
S31508000E1004E045F0800501E045F4807520688169A5
S31508000E2021F0700181612068042141604DB1606A3A
S31508000E3040EA05012046616201B0BDE8F04FFFF7C0
S31508000E4075BE01B0BDE8F08FD0B1B0B5044690F8D4
S31508000E50200010B9204600F06FF82068016841F0BC
S31508000E600101016000F080FC054600BF206841686A
S31508000E70C90707D100F078FC401B0B28F6D312E00F
S31508000E8001207047016821F00201016000F06CFC46
S31508000E90054600BF2068416889070BD500F064FC49
S31508000EA0401B0B28F6D3606A052140F400306062C7
S31508000EB001203EE0217E0268012922F0800208BF57
S31508000EC080320260617E0268012922F0400208BF72
S31508000ED040320260A17E0268012922F0200208BF82
S31508000EE020320260E17E0268012922F0100218BF52
S31508000EF010320260217F0268012922F0080208BF29
S31508000F0008320260617F0268012922F0040208BFE4
S31508000F1004320260D4E901C2D4E9033561691A438F
S31508000F202A431143ACF101021143C161002001219A
S31508000F30606284F82010B0BDB0B586B0044601A83A
S31508000F401421FFF721FB206846F60001C4F20001D0
S31508000F50884231D046F20041C4F20001884279D174
S31508000F6040F2A821C2F200010A6843F63000C4F232
S31508000F700200531C0B6052B900210091016941F02F
S31508000F8000710161016901F0007100910099002169
S31508000F9000910168152441F00801016000681425D4
S31508000FA000F008000090009840F20040C4F20200E9
S31508000FB000F50060032131E043F630000021C4F259
S31508000FC002000091026942F080620261026902F041
S31508000FD080620092009A40F2A822C2F200021368C8
S31508000FE05D1C15604BB90091026942F000720261FE
S31508000FF0026902F000720092009A00910168412489
S3150800100041F0020101600068402500F002000090EE
S31508001010009840F200406021C4F2020001910221CA
S31508001020029100210391032104910921059101A947
S3150800103000F0C0FA28460021002200F0F6FE2846F5
S3150800104000F0E3FE20460021002200F0EEFE2046D6
S3150800105000F0DBFE06B0B0BD7047B0B5016846F6D5
S315080010600002C4F2000291420BD046F20042C4F2DA
S315080010700002914218BFB0BD40F21025C2F2000529
S3150800108003E040F25C25C2F200052C1D05F12003A1
S3150800109000212246FFF74BFD05F12800016820468E
S315080010A0BDE8B04008477047B0B5016846F600028B
S315080010B0C4F2000291420BD046F20042C4F200028A
S315080010C0914218BFB0BD40F21025C2F2000503E0F8
S315080010D040F25C25C2F200052C1D05F12003012112
S315080010E02246FFF724FD05F1280001682046BDE8E1
S315080010F0B040084770470000B0B5044690F8200095
S3150800110001281CD1022084F820002068016821F0FB
S315080011100101016000F028FB054600BF2068406811
S31508001120C00712D000F020FB401B0B28F6D3606ADC
S3150800113040F400306062052084F8200003E0606A0D
S3150800114040F4002060620120B0BD00206062B0BD9E
S315080011507047704770477047704770477047000080
S3150800116070B5866D044600F0FFFA94F8351002292A
S3150800117025D105462068216C026822F01602026015
S31508001180426922F08002426109B9A16C19B101686D
S3150800119021F008010160016821F00101016000BF2A
S315080011A020680068C0070ED000F0DEFA401B06284B
S315080011B0F6D320206065032084F835000CE08020F3
S315080011C06065012008E0E06D3F2101FA00F0B0609B
S315080011D0012084F835000020002184F8341070BD01
S315080011E090F83510022909D1052180F835100068D4
S315080011F0016821F0010101600020704780214165E6
S3150800120001207047F0B581B004460020009040F2F6
S31508001210B400C2F200000268D4E9166048F2B513B9
S3150800122037680821C1F64E3381403942A2FB0325AF
S315080012300CD0226813685B0708D5136823F00403EB
S315080012401360B160616D41F0010161650121814062
S31508001250394208D022685269120604D5B160616D18
S3150800126041F00201616504218140394208D02268B3
S315080012701268920704D5B160616D41F00401616599
S3150800128010218140394217D020680268120713D509
S31508001290B16002680168520306D4C90506D401681C
S315080012A021F00801016001E0080301D4216C00E087
S315080012B0A16C09B120468847E16D202000FA01F2A9
S315080012C03A423CD020680368DB0638D5B26094F809
S315080012D035300268052B1AD122F0160202604269DF
S315080012E022F080024261226C0AB9A26C1AB1026825
S315080012F022F0080202603F208840B060012084F88E
S315080013003500216D002084F83400B9BB3BE0016844
S3150800131052030CD4C9050ED4016821F010010160EE
S31508001320012084F83500002084F8340003E008031F
S3150800133001D4616C00E0E16B09B120468847606D15
S3150800134008B3606DC00717D0052084F835002068FB
S31508001350A90A026822F00102026000BF009A01325F
S315080013608A42009202D80268D207F7D1012084F88F
S315080013703500002084F83400E16C21B1204601B024
S31508001380BDE8F040084701B0F0BD00002DE9F04186
S31508001390044600F0E9F9C4B10546022084F8350090
S315080013A00020216884F83400086820F001000860ED
S315080013B021680868C0070BD000F0D6F9401B05283D
S315080013C0F6D903252023032064E00120BDE8F08137
S315080013D0086848F23F02CFF21002D4E9013500EA64
S315080013E0020C04F10C0898E8C10143EA0C032B43EC
S315080013F01843D4E9072E304338431043626A40EA5B
S315080014000E00042A40EA08031CD1206BD4E90A2EF0
S3150800141040EA0E00184308604869BEF1000F20F044
S31508001420030040EA020040F0040C11D0B8F5005F52
S3150800143035D0B8F1000F42D1022A43D0012A38D05C
S31508001440002A3EE00B60486920F0070040EA020CDB
S3150800145001F0F8004AF6AB221038CAF6AA22A0FB19
S3150800146002231A094EF6CA63C1F814C0C0F600036F
S315080014709A5C40F2FF335F284FF03F0021EA0301F0
S3150800148000FA02F088BF0431C4E916128860002306
S3150800149001250020636584F83550BDE8F081032AEC
S315080014A0D6D8012540230120DFE802F0020C02030A
S315080014B0F0E7AEF1C070B0FA80F0400904E0032A04
S315080014C004D3C5D1CEF300600028C1D0012540233E
S315080014D00120DFE790F834C0BCF1010F04BF0220F9
S315080014E0704770B54FF0010C80F834C0D0F858E05A
S315080014F090F835C0BCF1010F37D14FF0020C80F8D7
S3150800150035C04FF0000CC0F854C0D0F800C084684D
S31508001510056CC06DDCF80060402C26F48026CCF8FB
S315080015200060CCF804300B4604BF13460A463F2138
S3150800153001FA00F0CCF80830CCF80C20CEF80800F8
S31508001540DCF8000040F01600CCF800002DB1DCF8FD
S31508001550000040F00800CCF80000DCF8000040F07D
S315080015600100CCF80000002070BD002180F834107E
S31508001570022070BDB0B5044600F0F6F8054640F204
S315080015808B10C2F200000078611C18BF044400BF2B
S3150800159000F0EAF8401BA042FAD3B0BD704743F604
S315080015A01441C4F201010A68024214BF0860704778
S315080015B0FFF7F4BF2DE9F04F82B000F13E4707F17F
S315080015C0FF77860546EA972741F60046C4F20206E3
S315080015D0082243F6004EB04208BF0722C4F2010EA5
S315080015E0072F38BF3A46002600274FF0000800921A
S315080015F00D68012202FA08F415EA040900F09B8036
S31508001600D1F804B003220BF0030CACF10105BA4083
S31508001610012D6FEA020A0FD88268CD6802EA0A022B
S31508001620BD402A4382604268A243CBF3001404FA01
S3150800163008F42243426005E0BCF1030F02D14FF0E3
S31508001640030C1EE0C2688C6802EA0A02BC40224308
S31508001650BCF1020FC26014D16FF0030202EA58020D
S315080016600244D2F820C006F01C040F230D69A340DB
S315080016702CEA0303A5402B431362D1F804B00BF000
S31508001680030C02680CFA07F302EA0A021A431BF46F
S31508001690403F02604FD0002243F644030192C4F251
S315080016A002031A684FF6084C42F480421A601A6818
S315080016B0CFF6FF7C02F480420192019A28F00302D9
S315080016C0724452F80C3006F00C050F24AC40A343C4
S315080016D0009C04FA05F52B4342F80C30DEF8082086
S315080016E04B6842EA090543F60C4CDC0258BF22EA6D
S315080016F00905CEF80850C4F2010CDCF800209C025B
S3150800170042EA090558BF22EA0905CCF80050DEF876
S3150800171004209C0342EA090558BF22EA0905CEF8C7
S315080017200450DEF80020DB0342EA090558BF22EA26
S315080017300905CEF8005008F101080237B8F1100F74
S3150800174006F104067FF454AF02B0BDE8F08F426993
S3150800175002EA0103914341EA034181617047002A85
S3150800176008BF09048161704744F2FC50C2F20000C8
S315080017700068704780B3F0B581B0044690F83D0024
S3150800178028B9002084F83C00204600F03FFA2420BF
S3150800179084F83D002068016821F0010101600168B4
S315080017A041F400410160016821F40041016001F043
S315080017B070FA636848F2A16CC0F2010C40F6001199
S315080017C0C0F23D0163453CBF48F28041C0F21E01AC
S315080017D0884203D2012079E0012070474DF68361E3
S315080017E0C4F21B31A0FB01122168970CD1F804E062
S315080017F04FF496762EF03F0545EA92454D607743BD
S3150800180048F638160D6AC0F24106A7FB067625F09B
S315080018103F07634538BF960C721C3A430A62CA6989
S3150800182048F2A0664CF6FF77C0F20106B34222EAF8
S3150800183007020AD801385B00B0FBF3F001306FF3FA
S315080018401F30042898BF042019E0A768013857B14B
S3150800185019277B43B0FBF3F001306FF31F3068B1F3
S3150800186000F5804007E003EB4303B0FBF3F00130DB
S315080018706FF31F3010B100F5004000E0012010435F
S31508001880C8610868D4E9072320F0C000104318434C
S315080018900860886848F2FF3204F10C0790438CCF41
S315080018A018431043A6698860C86820F0FF003843CB
S315080018B03043C860086840F0010008600020202115
S315080018C0206484F83D10206384F83E0001B0F0BD22
S315080018D02DE9F04383B01F4616460D460446FFF72A
S315080018E043FF94F83D1020290FD102218146C0F20A
S315080018F01001204601221923CDF8009003F080F844
S3150800190018B994F83C00012803D1022003B0BDE8B9
S31508001910F0830121226884F83C101368DDE90B087E
S315080019200A99DB0703D1136843F0010313601368B0
S3150800193023F400631360222284F83D20402284F8B1
S315080019403E200022226461626085608D29462085DA
S315080019500020CFF6FF70E062204632463B46CDE9CE
S31508001960008902F03AFF08B10120CFE7208DA0B127
S3150800197002281FD0012829D121680A6822F480622A
S315080019800A60002202924A6902928A690292029ABF
S315080019900A6842F400720A6020E00020029020687B
S315080019A041690291816902910299016841F40071C5
S315080019B0016092E021680A6822F480620A600A6877
S315080019C042F400620A600022029202E000210291BB
S315080019D021684A6902928969029102990427C0F22C
S315080019E0010700BF80B203280ED802284AD0012872
S315080019F02CD1204641464A4603F09CF80028B3D12C
S31508001A002068616A00691FE0204641464A4603F09D
S31508001A1091F80028A8D12068616A00690870606A90
S31508001A202268411C208D616201382085638D013B47
S31508001A30638553695B074DD580B2032803D11068C7
S31508001A4020F480601060106908703AE02046394634
S31508001A5000224346CDF8009002F0D2FF00287FF41A
S31508001A6083AF2068616A026822F4806202600069B6
S31508001A700870606A218D01306062481E2085608D7D
S31508001A80013860852046394600224346CDF8009045
S31508001A9002F0B6FF00287FF467AF2068616A026823
S31508001AA042F40072026000690870606A2268411C8C
S31508001AB06162218D01392185618D0139618511693F
S31508001AC04170606A218D01306062481E2085618DF3
S31508001AD00139618501047FF485AF202084F83D0033
S31508001AE0002084F83E0084F83C000FE72DE9F04317
S31508001AF083B0994616460F460446FFF735FE94F816
S31508001B003D1020290ED102210546C0F210012046BB
S31508001B1001221923009502F073FF18B994F83C00C6
S31508001B20012803D1022003B0BDE8F0830121226811
S31508001B3084F83C101368DDE90B080A99DB0703D122
S31508001B40136843F001031360136823F400631360FA
S31508001B50212284F83D20402284F83E200022226477
S31508001B6061626085608D394620850020CFF6FF705A
S31508001B70E062204632464B46CDE9008502F0AEFECD
S31508001B8008B10120CFE7208D18B300BF2046414693
S31508001B902A4603F009F810BB616A2268084610F85D
S31508001BA0013B1361238D6062581E2085678D013FB6
S31508001BB0678557697F070AD5070408D048781061F2
S31508001BC0881C6062981E2085618D01396185000434
S31508001BD0DCD1204641462A4602F0DCFE40B1206CA4
S31508001BE00428CED12068016841F400710160C8E775
S31508001BF02068016841F400710160202084F83D00E6
S31508001C00002084F83E0084F83C008CE72DE9F04F6C
S31508001C1087B00446006845F60046C4F20006B0429E
S31508001C2040F08480002143F630070291C4F202078F
S31508001C30386802AD40F00400386038684FF0120A80
S31508001C4000F0040002900298029138684FF0010BE8
S31508001C5040F00100386038684FF0030800F00100D2
S31508001C60029002984FF4007002904FF0040906F5AE
S31508001C70D6302946CDF80CA0CDF810B0CDF8148092
S31508001C80CDF81890FFF796FC4FF4807002A981E80A
S31508001C90010CCDF8189046F2400906F5D2302946CF
S31508001CA0CDF814804FF00008C4F20209FFF782FC51
S31508001CB0CDF80480386943F6CC2540F40000386135
S31508001CC03869C2F2000500F40000019001984FF04F
S31508001CD0C0674FF4806605F114001421C5E9009722
S31508001CE0C5E902882E61FEF74FFC2846FFF74EFB32
S31508001CF008B1FEF74BFEA563AC6343F62C3509F134
S31508001D003000C2F200054021C5E90007C5E90218FE
S31508001D1005F1140014212E61FEF736FC2846FFF75C
S31508001D2035FB08B1FEF732FE6563AC6307B0BDE864
S31508001D30F08F40F28B1044F2FC51C2F20000C2F25E
S31508001D40000100780A6810440860704780B543F6B9
S31508001D500040C4F20200016841F4007101600168A4
S31508001D6041F480610160016841F4807101600320DB
S31508001D7000F086F80F2000F004F800F02AF800209A
S31508001D8080BDB0B540F28B12C2F2000240F2B40137
S31508001D901278C2F200014FF47A730968B3FBF2F2C3
S31508001DA00446B1FBF2F1084601F02DFC0F2C4FF06A
S31508001DB001050CD858B94FF0FF30214600220025FE
S31508001DC000F033F840F28C10C2F200000460284696
S31508001DD0B0BD82B0002043F640010190C4F2020172
S31508001DE04A6842F480424A604A6802F48042019294
S31508001DF0019A0090086840F080500860086800F072
S31508001E0080500090009802B0704700280CD400F06B
S31508001E101F01012202FA01F11C2202EAD0004EF249
S31508001E200012CEF200028150704710B54EF60C5CD7
S31508001E30CEF2000CDCF80030C3F3022E8EF0070455
S31508001E40042C28BF0424BEF103034FF0FF3E0EFA0C
S31508001E5004F438BF0023A14399400EFA03F39A43CA
S31508001E60114300F00F0200F160430901043A03F53B
S31508001E7064436244002848BF02F10C03197010BD80
S31508001E804EF60C51CEF200010A684FF6FF031A40CF
S31508001E9060F30A2242F0806040F0FD7008607047E7
S31508001EA0704702680020516270470000B0B5D0F84C
S31508001EB000E0DEF82400C9B1DEF82830B1F1010CE3
S31508001EC000EB13430BD05FFA8CF10EF582700024F9
S31508001ED050F8045B01348C4203EB1543F8D343EA0C
S31508001EE002400EEB8C01C1F8040103E040EA02400F
S31508001EF0CEF828000020B0BDD0F8E00404F0B1BC4C
S31508001F0001EBC102D0F8E03400EB8200026A184601
S31508001F1004F015BC01EBC102D0F8E03400EB8200F6
S31508001F20D0F86022184604F062BCD0F8E00404F049
S31508001F309ABC10B5044648B2B0F1FF3F01F00F0055
S31508001F4000EBC00104EB810205DD02F515710023E3
S31508001F5082F8553203E0012302F11401537594F80F
S31508001F6094240870012A04BF022010BD20680122AB
S31508001F7084F8942405F03FF9002084F8940410BDF1
S31508001F80B0B50279044601F00F00904201D9012547
S31508001F9026E049B2B1F1FF3F09DD00EBC00104EBD1
S31508001FA0810202F51571002382F8553207E000EB2D
S31508001FB0C00104EB8102012302F11401537594F860
S31508001FC094240025012A8D70087001D1022507E0A6
S31508001FD02068012284F8942405F069FA84F8945458
S31508001FE02846B0BD01F00F0101EBC10100EB8100ED
S31508001FF0D0F86802704770B5064648B2B0F1FF3FA0
S3150800200001F00F0000EBC00107DD06EB810404F5C3
S315080020101571002584F8555206E006EB810C01245B
S315080020200CF114018CF815404D786FF3DF22087017
S315080020308A600B7105B14883022B04BF00204871E2
S3150800204096F89404012804BF022070BD3068012266
S3150800205086F8942405F017F8002086F8940470BDD5
S3150800206010B501F00F0404EBC40100EB810E4FF02C
S31508002070000CCEF868C28EF855C290F806C0CEF8A5
S315080020806022CEF86432BCF1010F8EF8544208BFC4
S31508002090CEF8702200680EF51571624605F04EFA04
S315080020A0002010BDB0B50446007901F00F05854241
S315080020B084BF0120B0BD48B2B0F1FF3F09DD01EB96
S315080020C0C10004EB800000F51571002280F8552246
S315080020D007E005EBC50004EB8000012200F11401BE
S315080020E0427594F89404012201288A700D7004BF81
S315080020F00220B0BD206884F8942405F000FA2DB9B2
S315080021002068A17904F29C4205F0A4F9002084F81D
S315080021109404B0BD80B501F00F0C0CEBCC0100EBBC
S31508002120810E714601F814CF4FF0000CC1F814C0A7
S315080021304FF0010C81F801C090F806C0CA60BCF1E6
S31508002140010F0B6108BFCEF830200068624605F023
S31508002150F5F9002080BD00002DE9F04F89B0D0F8D0
S3150800216000A00646504605F06FFB10B109B0BDE861
S31508002170F08F306805F096FB0028F7D0DAF80808E3
S31508002180C0F30D213068C6F8D41405F08BFB014660
S315080021903068890703D5416901F0020141610AF5F2
S315080021A00061049105F07EFB01463068C906089671
S315080021B03BD5816921F010018161DAF82040C4F32A
S315080021C04340062804F00F0519D0022828D147F6FF
S315080021D0F07014EA000823D005EBC50006EB80076B
S315080021E0D7F860124FEA18145046224605F05EFBEF
S315080021F0D7F8600200EB1810C7F8600207E006F28D
S315080022009C415046082205F051FBC4F30A1405EB1D
S31508002210C50006EB8000D0F868122144C0F86812A1
S315080022203068816941F01001816105F03BFB0003CC
S3150800223040F1E7800898006805F013FB002800F0D5
S31508002240E080064608984FF4306400F29C4100F599
S315080022501D784FF0000B0791F00700F0C68008982C
S315080022605FFA8BF90068494605F014FB0746C00774
S3150800227060D00AEB040001218160089D28682118B6
S31508002280036C8A68AD79012D27D1150733D49506D5
S315080022904DD412F0280F4DD143F20B05C4F65475F0
S315080022A0AB4202D312F400422ED1D8F800200969B5
S315080022B0BBF1000F6FF3DF41A2EB010148F80C1CDC
S315080022C030D1089BD3F86422002A00F09880D3F80E
S315080022D060020844C3F8600224E043F20B05C4F622
S315080022E05475FF35AB4212D110040DD4900644BF85
S315080022F02020886016E043F20B00C4F6547083422F
S3150800230018D312F4004015D04FF4004010E0BBF18A
S31508002310000F07D10899D1F8641219B90021079A54
S3150800232005F098F808984946FFF7F4FD02E02020E2
S31508002330886000BF38072BD50AEB040008218160A6
S31508002340089843F20B020068C4F65472056C2044E0
S315080023508168954209D311F4004106D04FF4004133
S315080023608160089800F0A8FB08E0089800F0A4FB34
S3150800237043F20B00C4F65470854209D30898807955
S31508002380012805D10898079A0068012105F062F826
S31508002390F80642BF0AEB040010218160B80717D57A
S315080023A0DAF81400000604D50499486840F48060F9
S315080023B0486018F81D0C012806D1002008F81D0CE5
S315080023C00898494600F09AFA0AEB0400022181604F
S315080023D0B80642BF0AEB040020218160B80442BF58
S315080023E00AEB04004FF4005181600BF1010B7608EB
S315080023F004F1200408F124087FF42EAF01E001213E
S315080024008DE7DDF820B0CDF80CA0DBF8000005F06C
S3150800241049FA400340F1D480DBF8000005F01AFAC7
S31508002420002800F0CD8082460398012700F5106643
S315080024300BF29C4000250190029600BF5FEACA7025
S3150800244000F0B880DBF80000E9B2079105F010FA51
S315080024500446C00726D0049A05F00F00516B07FA08
S3150800246000F021EA0000506306EB451087609BF8F0
S315080024700600012812D105EBC5000BEB8000D0E958
S315080024800712114401624DB9DBF8240030B9DBF8B4
S315080024900000019A012104F0DDFF00BF07995846A4
S315080024A0FFF72EFD200742BF06EB45100821816085
S315080024B0E00642BF06EB451010218160600642BF68
S315080024C006EB451040218160A00715D503982946DB
S315080024D005F08AF905EBC5000BEB800010F8171F0D
S315080024E0012905D1002101700799584600F002FA22
S315080024F006EB45100221816020065BD505EBC50079
S315080025000BEB8002914659F8241FC84658F8040F69
S3150800251081424FD3DBF8006093465BF81C7F0B1AA9
S31508002520BB4238BF1F46069606EB4513D3F818C9B3
S3150800253007F1030E1FFA8CF7B7EB9E0F28D303F5A6
S31508002540106102F120070591D9F8001081421FD9C0
S31508002550DBF80040089A081AA0423968967938BF0D
S315080025600446DDE90602A3B2009605F08BFA386840
S31508002570D8F800102044386008190599C8F80000F2
S315080025808969E21C89B2B1EB920FDDD2D9F8001045
S31508002590DDF820B0029E012781420BD8069A05F085
S315080025A00F00D2F8341807FA00F021EA0000C2F842
S315080025B0340800BF5FEA5A0A05F101057FF43EAF09
S315080025C0DBF8000005F06EF9002804D4DBF80000FB
S315080025D0DDE903891EE0DDF81090D9F8040020F043
S315080025E00100C9F804009BF8CC04012807D1002093
S315080025F08BF8CC0458460021FFF752FC02E05846F7
S3150800260000F03FFADBF80000DDF80C80416901F0C4
S315080026100041416105F046F9000502D4DBF80000E7
S315080026200CE0D9F80800C00702D0584600F06AFA4C
S31508002630DBF80000416901F40061416105F032F9F7
S31508002640C00402D4DBF800005CE0D9F804001021CD
S3150800265020F00100C9F80400DBF8000005F0C4F812
S315080026609BF80400D8B108F510614FF67F3200BF19
S315080026708A600B68013823F400130B60C1F808223E
S31508002680D1F8003223F40013C1F80032D1F8003231
S3150800269043F00063C1F8003201F12001E8D1D9F80E
S315080026A01C0040F00110C9F81C009BF80F0040B14F
S315080026B0D9F8840040F00B00C9F8840009F14400F9
S315080026C008E0D9F8140042F22B010843C9F81400AF
S315080026D009F1100001680BF29C4241F00B01016000
S315080026E0D9F8000020F4FE60C9F80000DBF8000005
S315080026F09BF8061004F0AEFEDBF80000416901F411
S315080027008051416105F0CEF80146DBF800008904E6
S315080027101AD504F0F8FCDBF8000005F088F8DBF8B9
S3150800272000408BF8070000F0AEFA9BF80720014638
S31508002730204605F01EF9584600F090F9DBF800002F
S31508002740416901F40051416105F0ACF8000702D473
S31508002750DBF8000008E0584600F097F9DBF80000BF
S31508002760416901F00801416105F09CF8000628D589
S31508002770D8F8180020F08000C8F818009BF8040064
S3150800278002281ED3012440F27B2500BF1BF8051042
S31508002790012911D104F00F0000EBC0000BEB8002F9
S315080027A02006DBF8000002F1140158BF02F5157186
S315080027B004F0AAFF9BF804000134844205F12405BD
S315080027C0E4D3DBF8000005F06DF8C00202D4DBF8AC
S315080027D000002CE09BF80400022822D308F51264B6
S315080027E00BF13C05012601272946226815F8243BEA
S315080027F0012B11D1B2F1FF3F0EDC07F00F0000EB01
S31508002800C00001F8016C0BEB8001DBF80000143105
S3150800281004F07AFF9BF804000137874204F120048C
S31508002820E2D3DBF80000416901F48011416105F04B
S3150800283039F8800202D4DBF8000037E09BF8041070
S3150800284002292DD308F5326001390BF51F720123D1
S315080028501746066812F8245B012D16D1B6F1FF3F1C
S3150800286013DCDBF8D45406F4803605F00105AE42D5
S315080028700BD107F8013CD8F8187047F08007C8F85C
S315080028801870D8F814703F0604D5013900F12000F5
S31508002890DED105E0D9F8040040F40070C9F8040058
S315080028A0DBF80000416901F40011416104F0FAFF08
S315080028B0400002D4DBF8000008E05846FFF71CFB8E
S315080028C0DBF80000416901F08041416104F0EAFF4C
S315080028D040077FF54BACDBF800004468610704D578
S315080028E05846FFF722FBDBF80000416821434160A8
S315080028F0FFF73CBCD0F8E00404F00EB8D0F8E004CA
S3150800290004F01FB8B0B582B000285AD0044605684E
S3150800291090F8950428B9002084F89404204600F01D
S315080029205DF80320B5F1A04F84F8950404BF002094
S31508002930A071206804F087FD94E80F00257C0095B7
S3150800294004F0F1FBD0BB2068002104F0CFFFA8BB40
S3150800295094F804C0BCF1000F29D00CEBCC00810020
S3150800296000224FF0010E0025002000BF6319243510
S315080029701875D885A94200F1010083F815E01A7682
S31508002980C3E907225A62F1D1BCF1000F0FD004F552
S3150800299015710022002000BF087001304A700A71C4
S315080029A0C1E902220A61844501F12401F4D194E8BF
S315080029B00F00257C009504F07FFC30B1022084F8D6
S315080029C095040125284602B0B0BD0025012065748E
S315080029D084F89504206804F060FCF3E70068B0F119
S315080029E0A04F18BF7047B0B586B0002543F630042F
S315080029F00195C4F20204206801A940F00100206094
S31508002A00206800F00100019001984FF4C050019031
S31508002A100220CDE90205032004900A200590002033
S31508002A20C4F20200FEF7C6FD6068002140F080008F
S31508002A30606000956069002240F4804060616069CA
S31508002A4000F48040009000984320FFF7EEF94320F9
S31508002A50FFF7DBF906B0BDE8B040704710B5C1799D
S31508002A60044621B1022901D0FDF790FF0121D4F8CF
S31508002A70E00403F0E9FFD4F8E004BDE8104003F0F1
S31508002A809ABFD0F8E00403F0C6BFD0F8E00403F01C
S31508002A90CCBF10B5044690F89404012804BF022060
S31508002AA010BD012084F894046174206804F050FF76
S31508002AB0002084F8940410BDD0F8E02400F29C416C
S31508002AC0104603F0D6BF10B5044690F894040128C2
S31508002AD004BF022010BD2068012184F89414C1683F
S31508002AE0490606D5617B012903D1816B41F4803102
S31508002AF0816304F04DFE206804F0C0FB002084F8D2
S31508002B00940410BD10B50446D0F8E00404F003F8A8
S31508002B102068D0F8001E41F00101C0F8001EE07AD6
S31508002B2038B14EF61050CEF20000016841F00601A9
S31508002B30016010BD002872D02DE9F04143F6000867
S31508002B40C4F202080446D8F800040D4600F007004F
S31508002B50884207D288F80054D8F8000400F0070025
S31508002B60A84266D12068810717D5410705D5D8F848
S31508002B70081041F4E051C8F80810010705D5D8F83F
S31508002B80081041F46041C8F80810D8F80810A2687F
S31508002B9021F0F0011143C8F80810C00741D1D8F850
S31508002BA0000400F00700A84207D988F80054D8F8AE
S31508002BB0000400F00700A8423BD12068410707D56A
S31508002BC0D8F80810E26821F4E0511143C8F8081053
S31508002BD0000708D5D8F80800216920F4604040EAC3
S31508002BE0C100C8F8080000F07AF8D8F808104EF6C0
S31508002BF0EC52C1F30311C0F60002515C40F2B40274
S31508002C0020FA01F140F28C10C2F200000068C2F20C
S31508002C1000021160FFF7B5F80020BDE8F081012039
S31508002C2070476068811E022906D2D8F8001089010B
S31508002C3008D40120BDE8F08101281FD1D8F800107A
S31508002C408903F6D5D8F8081021F003010843C8F817
S31508002C500800FEF789FD064641F28837D8F80800CD
S31508002C60616800F00C00B0EB810F98D0FEF77CFD90
S31508002C70801BB842F2D90320BDE8F081D8F80010CD
S31508002C808907D6D5DEE740F2B400C2F20000006834
S31508002C90704740F2B40043F60801C2F20000C4F2DD
S31508002CA00201006809684EF6FC52C1F38221C0F69B
S31508002CB00002515CC840704740F2B40043F6080170
S31508002CC0C2F20000C4F20201006809684EF6FC521E
S31508002CD0C1F34231C0F60002515CC840704710B5D6
S31508002CE043F60404C4F20204606800F00C000828E5
S31508002CF00AD0042819BF42F20040C0F2F40041F697
S31508002D000030C0F2B70010BD206821682368490268
S31508002D1041F60031C0F2B70100F03F02C3F3881054
S31508002D205CBF42F20041C0F2F401A1FB000100239E
S31508002D30FDF719FB21680222C1F3014102EB4101AB
S31508002D40B0FBF1F010BD000000286BD02DE9F04172
S31508002D5082B00446007843F60006C007C4F20206AD
S31508002D600CD0B06800F00C00042840F09A80306857
S31508002D70800303D56068002800F0AD8020788007BE
S31508002D801BD5B06810F00C0F09D0B06800F00C0025
S31508002D90082840F0A2807068400200F19E803068E2
S31508002DA0800703D5E068012840F0958030682169DE
S31508002DB020F0F80040EAC10030602078000733D4DC
S31508002DC02078400747D4A56955B3B06800F00C00D1
S31508002DD0082840F0B580012D7DD07068E16900F4BF
S31508002DE080028A4277D1216A00F03F028A4272D174
S31508002DF047F6C071626A0140B1EB821F6BD1A16AC6
S31508002E004FF6FF73C903994300F44032A1F58031A8
S31508002E108A4260D1E16A00F07060B0EB016F5AD166
S31508002E200020F3E0012070476069002840F20000A6
S31508002E30C4F2472074D00121C0F8801EFEF794FC26
S31508002E40054600BF706F8007BAD4FEF78DFC401B9D
S31508002E500228F7D9D9E0306C5FEAC0080AD4002006
S31508002E600190306C40F080503064306C00F0805037
S31508002E700190019847F20007C4F200073868C005B8
S31508002E8040D4386840F480703860FEF76DFC05461B
S31508002E903868C00536D4FEF767FC401B0228F7D908
S31508002EA0B3E0B06800F00C00082803D1706840024F
S31508002EB03FF55DAF6068B0F5803F07D0B0F5A02F4D
S31508002EC040F08D80306840F480203060306840F4EF
S31508002ED0803030608DE0012098E0E068002851D00D
S31508002EE00020C4F2472001210160FEF73DFC05469B
S31508002EF0306880073FF55AAFFEF736FC401B0228BC
S31508002F00F6D982E0A068012805D005284ED1306F91
S31508002F1040F004003067306F40F0010030674FE042
S31508002F200021C0F8801EFEF71FFC0546706F80075B
S31508002F307FF546AFFEF718FC401B0228F6D964E079
S31508002F400027C4F2472700203866FEF70DFC022D3D
S31508002F5005460BD1306880015BD5FEF705FC401BA2
S31508002F6002284FF00300F5D950E000BF3068800111
S31508002F707FF556AFFEF7F8FB401B02284FF003001B
S31508002F80F4D943E00020C4F2472000210160FEF78F
S31508002F90EBFB0546306880077FF50FAFFEF7E4FBCD
S31508002FA0401B02284FF00300F4D92FE0316F0028A8
S31508002FB021F001013167316F21F00401316749D0F1
S31508002FC0FEF7D2FB054641F2883700BF306F80070F
S31508002FD051D4FEF7C9FB401BB842F7D915E0316852
S31508002FE0002821F480313160316821F48021316074
S31508002FF04AD0FEF7B9FB0546306880033FF5BEAEFA
S31508003000FEF7B2FB401B6428F6D9032002B0BDE8E0
S31508003010F08104F11C052FCD084340EA8210D9033C
S315080030204FF6FF729143A1F5803140EA05600843E7
S31508003030706001203866FEF797FB04463068800109
S315080030403FF5EEAEFEF790FB001B02284FF003009B
S31508003050F4D9DBE7FEF788FB054641F2883700BF5F
S31508003060306F800707D5FEF77FFB401BB8424FF04D
S315080030700300F5D9CAE7B8F1000F3FF5A4AE306CE6
S3150800308020F0805030649EE6FEF76EFB054600BFD2
S31508003090306880037FF572AEFEF766FB401B642836
S315080030A04FF00300F4D9B1E7704770B538B104465C
S315080030B0406A30B10020206104F1140007E00126BF
S315080030C04BE06068B0F5827F03D004F11C00002154
S315080030D001600026A66294F8510020B9204684F8BB
S315080030E0506000F03CF8022084F8510094E80F0084
S315080030F001F48271056802F4044225F04005056072
S31508003100114403F400622369114403F0020263695F
S31508003110114403F00102A369E569114403F400723E
S31508003120114405F03802256A114405F08002A56AA3
S31508003130114305F4005211430160626A042101EA51
S31508003140134102F0100211444160C16921F4006183
S31508003150C1610120666584F85100304670BD2DE9CD
S31508003160F04F85B00446006843F20007C4F2010731
S31508003170B84240F08A80002643F630000096C4F232
S31508003180020041696D4641F48051416141694FF041
S31508003190020A01F4805100910099009601684FF0E7
S315080031A0010B41F00201016001684FF0030901F0CB
S315080031B0020100910099009601684FF0050841F058
S315080031C0010101600068294600F00100009000989E
S315080031D01820009007F55440CDF804A0CDF808B0A3
S315080031E0CDF80C90CDF81080FEF7E4F980208DE834
S315080031F0010CCDE9039846F2404807F550402946A8
S31508003200C4F20208FEF7D6F943F68C35C2F2000579
S315080032104FF4403005F120014FF0C06B4FF4806A3F
S31508003220042781E881022846C5E9008BC5E90266BC
S31508003230C5E904A6C5E90666C5E90B66FEF7A6F85C
S3150800324008B1FDF7A3FBE564AC6343F6EC3508F17A
S315080032501800C2F200054021C5E9000B05F1080077
S3150800326080E842044FF4003005F1200181E881022C
S315080032702846C5E90566EE61C5E90B66FEF786F8D8
S3150800328008B1FDF783FBA564AC6305B0BDE8F08F14
S31508003290704770472DE9F04381B01E4615460F4624
S315080032A00446FEF761FA94F851108146012972D155
S315080032B0002F4FF0010000F0BE80002D00F0BB800B
S315080032C0002E00F0B88094F85000012870D0012034
S315080032D084F8500094F85100002104281CBF0520EA
S315080032E084F851006165A563E687A6872763E686A5
S315080032F02068A686216461640168490603D40168CA
S3150800330041F0400101606168731EE268B1FA81F11B
S31508003310B3FA83F3DDF8208049095B09B2F5006F3B
S3150800332041EA030146D131B137F8021BC160276370
S31508003330E08E0138E086012608F10105E08E10B915
S31508003340E08F00287AD02068816889070CD5E18E3D
S3150800335051B1012E08D1216B002631F8022BC2602B
S315080033602163E18E0139E1868168C9070AD0E18FB8
S3150800337041B1C068A16B012621F8020BA163E08F59
S315080033800138E087FEF7F0F9002DD7D0A0EB090049
S315080033904045D3D348E06068B0F5827F08D1042958
S315080033A04FF0020047D1A16800293FF481AF42E0FF
S315080033B0022040E039B139780173206B013020636F
S315080033C0E08E0138E086012608F10105E08E08B98D
S315080033D0E08F98B32068816889070ED5E18E61B1C0
S315080033E0012E0AD1216B002609780173216B20680A
S315080033F001312163E18E0139E1868168C9070BD065
S31508003400E18F49B1C068A16B01260870A06B013035
S31508003410A063E08F0138E087FEF7A6F9002DD5D026
S31508003420A0EB09004045D1D3012084F851000020C3
S3150800343084F85000032001B0BDE8F08320464146D9
S315080034404A4602F057F830B120206065002084F81B
S3150800345050000120EFE7A06838B9002000902068E6
S31508003460C1680091806800900098012084F8510096
S31508003470002084F85000606D002818BF0120DAE7A4
S3150800348070B5044690F8510001284ED100294FF036
S31508003490010055D0002A53D0002B51D094F8500083
S315080034A001284ED0012084F8500094F851000026D7
S315080034B004281CBF052084F8510066652163A3868D
S315080034C0E386A263A387E387C4E9106694F85110DC
S315080034D045F2CB3C45F2D133C0F6000CC0F60003EA
S315080034E0042945F241412568E06C08BF634645F268
S315080034F0D73CC0F60001C0F6000C08BF6146C0E91B
S315080035000F1345F2AD31C0F60001C0E91316E38F7B
S3150800351005F10C01FDF7DEFFA8B1606D40F0100063
S315080035206065012084F8506070BD6568B5F5827FD6
S3150800353007D104284FF0020002D1A568002DA5D0B6
S3150800354070BD022070BD2268216BA06C536843F0E1
S3150800355001035360C0E90F66C0E91366E38E0C32B7
S31508003560FDF7B8FF40B1606D40F0100060650020BF
S3150800357084F85000012070BD21680868400603D40D
S31508003580086840F040000860002084F850004A6847
S3150800359042F020024A604A6842F002024A6070BD60
S315080035A010B5006843F60001C4F20001884211D044
S315080035B043F60041C4F20001884210D043F20001EC
S315080035C0C4F20101884218BF10BD40F2C054C2F2CD
S315080035D0000408E040F2D464C2F2000403E040F2BA
S315080035E0E874C2F2000460682189FEF7B0F8D4F8DE
S315080035F01031B4F80A2104F10A0004F18A01BDE881
S31508003600104018477047411E0020B0EB116F1CBFD1
S31508003610012070474EF21002CEF2000251604EF6BB
S315080036202351CEF20001F0230B7007219060116040
S3150800363070477047704790F83C20012A01D1022153
S315080036401FE0B0B501F108053CCDD1E900CE23F461
S315080036507C5322F470521A432EF4F0431A432CF486
S31508003660E0431A4324F4C0431A432A43C96922F49F
S315080036708042036811435964002180F83C10BDE874
S31508003680B0400846704790F83C20012A4FF00202E5
S3150800369050D010B580F83D200268D2F804E0D2F880
S315080036A008C00C682EF07003234341F2FF74C4F27D
S315080036B00004A24253600BDC40F2FF73C4F200031D
S315080036C09A4213DCB2F1804F27D040F2004315E04E
S315080036D040F2FF33C4F201039A4212DC41F60003BA
S315080036E0C4F200039A4218D0002312E040F6000301
S315080036F0C4F200039A4210D040F60043C4F2000315
S3150800370009E044F20003C4F201039A4205D040F2EC
S315080037100043C4F201039A4204D149682CF080039D
S31508003720194391600121002280F83D1080F83C2061
S31508003730BDE810401046704740B310B5044690F8EF
S315080037403D0028B9002084F83C00204600F020F807
S31508003750022084F83D002068211D01F0E3FF0120C6
S3150800376084F8460084F83E0084F83F0084F8400058
S3150800377084F8410084F8420084F8430084F8440041
S3150800378084F8450084F83D00002010BD01207047EC
S3150800379080B582B0006840F6FF31C4F20001884265
S315080037A01EDD40F60041C4F2000188423AD044F2D8
S315080037B00041C4F2010188424ED00021C4F2010141
S315080037C0884266D10020019043F64000C4F2020008
S315080037D0416841F001014160406800F0010056E08F
S315080037E040F20041C4F20001884243D040F600018D
S315080037F0C4F2000188424CD10020019043F64000F3
S31508003800C4F202000168002241F004010160006868
S31508003810012100F00400019001981E20FEF705FB27
S315080038201E2014E00020019043F64000C4F2020076
S315080038300168002241F0080101600068012100F0DA
S315080038400800019001983220FEF7EFFA322002B004
S31508003850BDE88040FEF7D9BA0020019043F6400043
S31508003860C4F20200416841F400314160406800F446
S3150800387000300CE00020019043F64000C4F202003C
S31508003880016841F002010160006800F00200019041
S31508003890019802B080BD90F83D1001291CBF012097
S315080038A07047022180F83D10006841F2FF72C16836
S315080038B0C4F20002904241F00101C1600BDC40F203
S315080038C0FF71C4F20001884213DCB0F1804F27D0A3
S315080038D040F2004115E040F2FF31C4F2010188428E
S315080038E012DC41F60001C4F20001884218D000211A
S315080038F012E040F60001C4F20001884210D040F6FA
S315080039000041C4F2000109E044F20001C4F20101D9
S31508003910884205D040F20041C4F20101884204D130
S31508003920816801F00701062903D0016841F0010109
S3150800393001600020704790F83C20012A4FF00202EF
S3150800394000F0C38080B580F83D20D0F800C04FF65F
S315080039507772DCF8083023EA0202CCF808200B68F4
S315080039604F2B28DC1F2B44DD202B45D0302B43D092
S31508003970402B40F0AC80D1F804E0C968DCF8203070
S31508003980DCF8202022F00102CCF82020DCF81820F0
S3150800399022F0F00242EA011123F00A0242EA0E027C
S315080039A0CCF81810CCF82020DCF8081041F04701B4
S315080039B021F030017EE06F2B26DDB3F5005F47D09E
S315080039C0B3F5805F78D0702B40F08180D1E901E3B0
S315080039D0C968DCF8082043EA0E0322F47F4243EA6A
S315080039E001211143CCF80810DCF8081041F07701E2
S315080039F060E00BB1102B6AD1DCF8081021F07001D9
S31508003A00194341F0070155E0502B34D0602B5ED1A5
S31508003A10D1F804E0C968DCF82030DCF8202022F070
S31508003A201002CCF82020DCF8182022F4704242EA72
S31508003A30013123F0A00242EA0E12CCF81810CCF895
S31508003A402020DCF8081041F0670121F0100131E070
S31508003A50D1E901E3C968DCF8082043EA0E0322F439
S31508003A607F4243EA01211143CCF80810DCF808101C
S31508003A7041F480411EE0D1F804E0C968DCF8203042
S31508003A80DCF8202022F00102CCF82020DCF81820EF
S31508003A9022F0F00242EA011123F00A0242EA0E027B
S31508003AA0CCF81810CCF82020DCF8081041F05701A3
S31508003AB021F02001CCF808100022012180F83D10E1
S31508003AC0002180F83C10BDE880401046704701226E
S31508003AD0F3E7704770B504460068C5680669B1071C
S31508003AE016D515F0020113D06FF00201016101210C
S31508003AF021778069800703D02046FFF7EAFF05E0B3
S31508003B00204600F0FAF8204600F071F900202077E8
S31508003B10700718D515F0040015D020686FF0040159
S31508003B20016102212177806910F4407F03D0204685
S31508003B30FFF7CFFF05E0204600F0DFF8204600F04B
S31508003B4056F900202077300717D515F0080014D04D
S31508003B5020686FF00801016104212177C069800798
S31508003B6003D02046FFF7B5FF05E0204600F0C5F86C
S31508003B70204600F03CF900202077F00618D515F00D
S31508003B80100015D020686FF0100101610821217717
S31508003B90C06910F4407F03D02046FFF79AFF05E07E
S31508003BA0204600F0AAF8204600F021F900202077E8
S31508003BB0F00718BF15F0010006D020686FF0010164
S31508003BC00161204600F096F9300609D515F0800007
S31508003BD006D020686FF0800101612046FFF729FDB5
S31508003BE0700609D515F0400006D020686FF0400130
S31508003BF00161204600F038FAB00658BF70BD15F0CE
S31508003C00200008D021686FF0200220460A61BDE82E
S31508003C107040FFF70FBD70BD10B586B0044601A809
S31508003C201421FCF7B1FC206840F60001C4F200013B
S31508003C30884225D044F20041C4F20101884238D0B6
S31508003C400021C4F20101884255D1002143F6300013
S31508003C500091C4F202000268002342F010020260DA
S31508003C600068012200F01000009000984FF4005000
S31508003C70019040F20040C4F2020000F5406032E0D4
S31508003C80002143F630000091C4F2020002680023C6
S31508003C9042F0020202600068022200F00200009070
S31508003CA000984FF48070019040F20040C4F2020080
S31508003CB019E00020009043F63000C4F202000168C3
S31508003CC0032241F0200101600068022300F0200071
S31508003CD0009000984020019040F20040C4F2020093
S31508003CE000F5805001210224CDE9024101A9CDE960
S31508003CF00432FDF75FFC06B010BD7047B0B5044648
S31508003D0090F83C00012804BF0220B0BD0D464FEADA
S31508003D10B2010120032984F83C0037D8DFE801F016
S31508003D20020A12222068294601F04BFE206850F844
S31508003D30181F0EE02068294601F074FE206850F826
S31508003D40181F16E02068294601F0A0FE206850F8E2
S31508003D501C1F41F008010160016821F0040101609F
S31508003D6029690FE02068294601F0C3FE206850F84B
S31508003D701C1F41F400610160016821F48061016043
S31508003D80296909020268114301600020002184F8AC
S31508003D903C10B0BD40B310B5044690F83D0028B9B4
S31508003DA0002084F83C00204600F020F8022084F821
S31508003DB03D002068211D01F0B5FC012084F846006D
S31508003DC084F83E0084F83F0084F8400084F84100F7
S31508003DD084F8420084F8430084F8440084F84500D7
S31508003DE084F83D00002010BD0120704770477047D9
S31508003DF041B108290ED0042914BF00F1410200F18F
S31508003E003F0209E090F83E20012A12D1022280F8EA
S31508003E103E2012E000F140021278012A09D102225E
S31508003E20082908D0042914BF80F8412080F83F20CB
S31508003E3003E00120704780F84020006801F01F0168
S31508003E400122036A02FA01F123EA01020262026A06
S31508003E50114341F2FF72C4F20002904201620BDC88
S31508003E6040F2FF71C4F20001884213DCB0F1804FC2
S31508003E7035D040F2004115E040F2FF31C4F20101AD
S31508003E80884214DC41F60001C4F20001884226D0BB
S31508003E90002114E040F60001C4F2000188421ED059
S31508003EA040F60041C4F20001884218D01CE044F2F2
S31508003EB00001C4F20101884211D040F20041C4F267
S31508003EC00101884210D1416C40F2004340F48062FF
S31508003ED0C4F2010341F400419A42416404D1816865
S31508003EE001F00701062903D0016841F001010160CC
S31508003EF000207047006841F6FF31C4F2000188428D
S31508003F001DDC40F6FF31C4F20001884234DD41F27F
S31508003F10FF31C4F20001884258DC40F60041C4F281
S31508003F200001884275D041F20001C4F200018842BE
S31508003F3040F0998040F65410C2F2000090E040F23A
S31508003F40FF31C4F2010188422ADD44F2FF31C4F28E
S31508003F50010188424BDC40F20041C4F2010188426B
S31508003F605CD044F20001C4F2010188427BD140F6DC
S31508003F706C10C2F2000073E0B0F1804F53D040F2EB
S31508003F800041C4F20001884252D040F60001C4F252
S31508003F900001884267D140F64410C2F200005FE093
S31508003FA041F60041C4F20001884246D042F20001BF
S31508003FB0C4F20001884245D00021C4F201018842BA
S31508003FC051D140F62C10C2F2000049E041F20041FE
S31508003FD0C4F2000188423AD041F60001C4F2000159
S31508003FE0884240D140F61410C2F2000038E044F28C
S31508003FF00041C4F2010188422ED044F60001C4F201
S315080040000101884218BF704740F60C10C2F2000042
S3150800401026E040F64C10C2F2000021E040F664109B
S31508004020C2F200001CE040F63410C2F2000017E0AD
S3150800403040F63C10C2F2000012E040F61C10C2F234
S3150800404000000DE040F62410C2F2000008E040F639
S315080040505C10C2F2000003E040F60410C2F2000051
S3150800406004300068004770477047000070B582B09A
S31508004070044690F84200202820D14FF00105F1B1FE
S31508004080EAB1002620462563666301F043FF206BEC
S31508004090012814D1019620680168019140680190B1
S315080040A0019800BF206850E8030F216840F010000F
S315080040B041E80302002AF5D1002500E0022528463A
S315080040C002B070BD70B50446006844F6FF72C4F2CB
S315080040D00002904217DC44F20042C4F20002904209
S315080040E028D044F60002C4F2000290422CD044F6CE
S315080040F00042C4F20002904218BF70BD40F6D44296
S31508004100C2F2000229E045F20002C4F2000290421F
S3150800411015D041F20002C4F20102904219D041F2D0
S315080041200042C4F2010290422AD140F6F462C2F279
S31508004130000212E040F6B422C2F200020DE040F698
S31508004140E452C2F2000208E040F6C432C2F20002AB
S3150800415003E040F6A412C2F2000202F5867002F1EC
S315080041608405036802F5827602F584722846118072
S315080041709847328820462946BDE87040FFF776BF43
S3150800418070BD000010B504460068416994F84120E6
S31508004190212A1FD111F080011CD000BF206850E8E9
S315080041A0050F216820F0800041E80502002AF5D1B4
S315080041B0A06B08B1FCF7D4FF206850E8030F21680C
S315080041C020F0C00041E80302002AF5D1202084F837
S315080041D041002068406994F84210222913D110F052
S315080041E0400010D0206850E8050F216820F04000F4
S315080041F041E80502002AF5D1E06B08B1FCF7B0FFEB
S31508004200204601F08BFD002010BD7047B0B582B086
S31508004210044600680168C368426901F02F05202D2D
S3150800422003F0200506D12DB1204602B0BDE8B04006
S3150800423001F09CBD5FEA017C1EBF02F0010E03F48B
S31508004240907212EB0E026ED1226BCD0643D5012A6F
S3150800425041D113F010023ED000210191016801916D
S315080042604168019101994069400600F1B980A08D25
S31508004270E18DE28D002A00F01581884200F0128156
S31508004280401A00BF216851E8031F226821F4907183
S3150800429042E80313002BF5D1216851E8051F22686F
S315080042A021F0010142E80513002BF5D1202184F8FD
S315080042B042100021216300BF216851E8031F2268CC
S315080042C021F0100142E80313002BF5D1022281B236
S315080042D020466263CAE00A0640F1CD8013F08002E8
S315080042E000F0C98094F84110212940F0DB80A168CC
S315080042F0B1F5805F03D12169002900F0DB80216ACE
S315080043004A1C226209784160E18C01390A04E18479
S3150800431040F0C880C16821F08001C160C16841F0E1
S315080043204001C160BEE0CA0718BF13F4807203D00B
S31508004330626C42F0010262644A0706D5BEF1000FBC
S3150800434003D0626C42F0020262648A0706D5BEF1A7
S31508004350000F03D0626C42F004026264BCF1000FE5
S3150800436006D55EEA050203D0626C42F00802626472
S31508004370626C002A00F09680890604D51DB1204695
S3150800438001F0F4FC20684069616C00F0400001F01F
S315080043900801401800F08180204601F0BFFC206823
S315080043A04069400640F18080206850E8050F216882
S315080043B020F0400041E80502002AF5D1E06B00280C
S315080043C072D045F61541C0F600010165FCF708FFF5
S315080043D0002867D0E06B016D02B0BDE8B040084721
S315080043E0E06B016849688AB2002A5BD0A38D9A42BD
S315080043F058D2E185C069B0F5807F30D0206850E892
S31508004400030F216820F4807041E80302002AF5D1E1
S31508004410206850E8050F216820F0010041E80502F0
S31508004420002AF5D1206850E8050F216820F04000E1
S3150800443041E80502002AF5D1202084F84200002030
S31508004440206300BF206850E8030F216820F01000A1
S3150800445041E80302002AF5D1E06BFCF781FE022051
S315080044606063A08DE18D401A81B2204602B0BDE896
S31508004470B040FFF727BE490614D513F0400111D006
S31508004480C16821F04001C1602021204684F841100E
S3150800449002B0BDE8B04000F09EB92046FFF7B5FE71
S315080044A00020606402B0B0BD204602B0BDE8B0404E
S315080044B0FFF7ABBE216A31F8022B6FF35F22426029
S315080044C0216221E758B310B5044690F8410028B98F
S315080044D0002084F84000204600F023F8242084F8C1
S315080044E041002068C16821F40051C160204601F0EE
S315080044F09CFC2068016921F490410161416921F021
S315080045002A014161C16841F40051C160002020219F
S31508004510606484F8411084F84210606310BD01207D
S3150800452070472DE9F04786B0044601A81421FCF728
S315080045302BF8206844F60001C4F2000188427CD0BA
S3150800454041F20041C4F20101884200F0CB8041F2F9
S315080045500001C4F20101884240F03881002743F681
S3150800456030000097C4F202004169002541F01001AD
S3150800457041614169C4F2020501F0100100910099F8
S315080045800097016801AE41F00201016001684FF031
S31508004590020901F0020100910099009701684FF0A5
S315080045A0030841F00101016000684FF0070A00F0B6
S315080045B00100009000988020019005F58060314642
S315080045C0CDE90297CDF81080CDF814A0FCF7F2FFDC
S315080045D04FF40070CDE9010903A880E88005284654
S315080045E03146FCF7E7FF46F22840C4F2020043F6DC
S315080045F04C456030C2F200054FF480624FF000610E
S3150800460085E88300C5E903724FF4803005F120027E
S31508004610042182E803012846C5E90577EF61C5E963
S315080046200B77FCF7B3FE08B1FCF7B0F9E563AC63AA
S315080046302520002100222524C3E0002643F6300069
S315080046400096C4F202000169032741F48021016142
S31508004650016901F48021009100990096016841F0F2
S3150800466004010160006801A900F0040000900098A8
S315080046704FF4406001900220CDE90206072005901C
S315080046800020C4F2020000F500600497FCF792FFD0
S3150800469046F22840C4F2020043F6AC45A0F5806015
S315080046A0C2F200054FF480624FF0006185E84300CE
S315080046B0C5E903624FF4003005F12002042183C2E4
S315080046C02846C5E90566EE61C5E90B66FCF75EFE98
S315080046D008B1FCF75BF9E563AC63272000210022EB
S315080046E027246EE0002643F630000096C4F2020046
S315080046F0416946F2284841F0200141614169032792
S3150800470001F020010091009900960168C4F20208A0
S3150800471041F040010160006801A900F040000090E6
S3150800472000984FF4844001900220CDE90206082043
S3150800473005900020C4F2020000F5C0500497FCF76B
S3150800474039FF43F60C55C2F200054FF4403005F127
S3150800475020024FF0206A4FF48069042183C228465C
S31508004760C5E9008AC5E90266C5E90496C5E906668B
S31508004770C5E90B66FCF70AFE08B1FCF707F9E5631D
S31508004780AC6343F66C5508F17800C2F20005402187
S31508004790C5E9000A05F1080080E842024FF48030B6
S315080047A0C5E908062846C5E90566EE61FCF7EEFD8B
S315080047B008B1FCF7EBF8A563AC6347200521002296
S315080047C04724FDF732FB2046FDF71FFB06B0BDE880
S315080047D0F087704770477047FEE72DE9F04782B0CB
S315080047E0044600689A460B9D0A9E0368914643F460
S315080047F08062026002680F4642F4807101602046BA
S315080048004FF0011100223346009500F0F9F840B147
S3150800481020680068C00544BF4FF400702064032078
S315080048203CE040F202082068C0F2010807F0FE07E3
S3150800483007612046414632462B4600F039F960BBEF
S315080048400020019020682A46416901918069314615
S3150800485001900198204600F0A7F9B0B92068BAF18E
S31508004860010F09D04FEA19210161204631462A462F
S3150800487000F09AF948B920685FFA89F10161204683
S3150800488031462A4600F090F958B1206C042804D124
S315080048902068016841F400710160012002B0BDE89A
S315080048A0F087206800220168334641F48071016070
S315080048B020464FF00111009500F0A2F80028A7D174
S315080048C047F0010C27682046414632462B46C7F872
S315080048D010C002B0BDE8F04700F0EAB82DE9F04391
S315080048E083B0044600680D4601680A9F0B9E41F492
S315080048F0807199469046016020464FF001110022CA
S315080049003B46009600F07CF840B120680068C00578
S3150800491044BF4FF40070206403200DE0206805F0C2
S31508004920FE0101610221C0F2010120463A463346E2
S3150800493000F0BEF818B1012003B0BDE8F0830020EE
S315080049400290206832464169029180693946029090
S315080049500298204600F028F940B1206C0428EAD1D4
S315080049602068016841F400710160E4E72068B9F144
S31508004970010F0AD04FEA182101612046394632460E
S3150800498000F012F90028E8D120685FFA88F1016181
S315080049900020D1E7F0B581B003680446184650F800
S315080049A0147F15467A0714D40E464F1C59694905D3
S315080049B011D44FB1FCF7D8FE236816B1401BB0429C
S315080049C002D9586940070BD5184650F8141F4907ED
S315080049D0ECD5002012E06FF480610160042000E04D
S315080049E0202000212022216384F83D2084F83E10EF
S315080049F0226C10432064012084F83C1001B0F0BDFD
S31508004A002DE9F04780460068154601F47F0718220D
S31508004A10B7F5803F08BF142280588CB22040001B8F
S31508004A20B0FA80F04009A8422CD1DDF820901E4645
S31508004A3003F1010ABAF1000F15D0FCF795FE1EB175
S31508004A40A0EB0900B0420ED9D8F800001821B7F536
S31508004A50803F08BF142140582040001BB0FA80F060
S31508004A604009A84211D0D8F800001821B7F5803FB0
S31508004A7008BF142140582040001BB0FA80F04009B6
S31508004A80A842D7D00020BDE8F08700202021C8F82A
S31508004A90300088F83D1088F83E00D8F8401041F0FC
S31508004AA02001C8F8401088F83C000120BDE8F087CE
S31508004AB02DE9F041984603680446184650F8146FE5
S31508004AC08FB206EA0701B94218D01646551C00BF30
S31508004AD05969490515D45DB1FCF746FE23681EB130
S31508004AE0A0EB0800B04203D958693840B84211D142
S31508004AF0184650F8141F3940B942E9D10020BDE8DC
S31508004B00F081196841F4007119606FF480610160E1
S31508004B10042000E0202000212022216384F83D2083
S31508004B2084F83E10226C10432064012084F83C105F
S31508004B30BDE8F08170B50368044653F8140F4006C3
S31508004B4013D415460E4600BF1868C0060FD4FCF7E6
S31508004B500BFE236816B1401BB04202D958694006BD
S31508004B6011D553F8140F4006EED5002070BD6FF02E
S31508004B701000186000202021206384F83D1084F876
S31508004B803E00206C09E000202021206384F83D10B7
S31508004B9084F83E00206C40F020002064002084F851
S31508004BA03C00012070BD0000F0B581B003680446E2
S31508004BB0184650F8147F15463A0614D40E464F1C6C
S31508004BC05969490511D44FB1FCF7CEFD236816B1D2
S31508004BD0401BB04202D9586900060BD5184650F852
S31508004BE0141F0906ECD5002012E06FF480610160FD
S31508004BF0042000E0202000212022216384F83D20A3
S31508004C0084F83E10226C10432064012084F83C107E
S31508004C1001B0F0BD10B543F67C2046F20041C2F261
S31508004C200000C4F2000140F2001403220023C0F27F
S31508004C30010480E80E0000F10C014FF4C02C4FF47B
S31508004C40A00E81E8085084618383FCF7FDF818B14B
S31508004C50BDE81040FBF79ABE10BD10B543F6A42078
S31508004C6046F60001C2F20000C4F2000140F2001448
S31508004C7003220023C0F2010480E80E0000F10C01B3
S31508004C804FF4802C4FF4E00E81E80850846183834A
S31508004C90FCF7DAF818B1BDE81040FBF777BE10BD8F
S31508004CA080B582B0002043F630010190C4F20201BB
S31508004CB00A6842F400120A600A6802F400120192B5
S31508004CC0019A00900868002240F48000086008688D
S31508004CD0002100F48000009000980C20FDF7A5F84C
S31508004CE00C20FDF792F80D2000210022FDF79DF813
S31508004CF00D20FDF78AF80F2000210022FDF795F810
S31508004D000F20FDF782F8392005210022FDF78DF8DE
S31508004D103920FDF77AF83A2005210022FDF785F8B3
S31508004D203A20FDF772F83B2000210022FDF77DF8B6
S31508004D303B20FDF76AF8442000210022FDF775F8AC
S31508004D404420FDF762F8452005210022FDF76DF89D
S31508004D50452002B0BDE88040FDF757B82DE9F04779
S31508004D6086B0002143F6300005910091C4F2020096
S31508004D70026840F2000842F0020202600268C4F2C9
S31508004D80020802F002020092009A0091026808F5F1
S31508004D90C05742F0400202600268402602F0400214
S31508004DA00092009A00910268012442F00102026012
S31508004DB0026802F001020092009A0091026842F02D
S31508004DC008020260026802F008020092009A009146
S31508004DD0026842F004020260026802F004020092CD
S31508004DE0009A0091026842F080020260026802F0AE
S31508004DF080020092009A0091026842F02002026046
S31508004E00026802F020020092009A009101680122CD
S31508004E1041F0100101600068402100F01000009088
S31508004E2000983846FCF79BFC4046102101224FF0BB
S31508004E301009FCF794FC08F5806528460121012233
S31508004E40FCF78DFCCDE9016401AE38463146CDE963
S31508004E500344FCF7AFFB092001904FF4041A3846C7
S31508004E603146CDE902A4FCF7A5FB022740463146A8
S31508004E70CDE9019403940497FCF79CFB3020CDE917
S31508004E80010A08F5006031460394FCF793FB2846AF
S31508004E903146CDE90144CDE90347FCF78BFB0620F3
S31508004EA002210022FCF7C1FF0620FCF7AEFF09200D
S31508004EB001210022FCF7B9FF0920FCF7A6FF0A200A
S31508004EC001210022FCF7B1FF0A20FCF79EFF1720FC
S31508004ED001210022FCF7A9FF1720FCF796FF06B070
S31508004EE0BDE8F08780B543F6CC5045F60041C2F2DE
S31508004EF00000C4F2000141F6802200234FF4804CE2
S31508004F00C0F2060280E80E00C0E9033CC0E905339A
S31508004F10C0E90733FCF72EFC18B1BDE88040FBF763
S31508004F2035BD80BDB0B544F2043043F20001C2F28B
S31508004F300000C4F201014FF48272002380E80E00DB
S31508004F4000F10C014FF0020C4FF0010E4FF4007403
S31508004F50382581E808500A21C0E90645C0E9083322
S31508004F60C0E90A31FEF7A1F818B1BDE8B040FBF771
S31508004F700DBDB0BD80B588B044F2A43044F20042FD
S31508004F800021C2F20000C4F2010241F28733CDE9E2
S31508004F900611CDE90411C0E90021C0E90213016137
S31508004FA08161FEF7C9FB08B1FBF7F0FC44F2A430B7
S31508004FB0C2F20000FEF7EEFE08B1FBF7E7FC602040
S31508004FC001900020CDE90200059044F2A430C2F217
S31508004FD0000001A90022FEF791FE08B1FBF7D6FCF6
S31508004FE044F2A430C2F20000FEF716FE08B080BDF7
S31508004FF0B0B596B009AC002520461C211595CDE91B
S315080050001355CDE91055FBF7BFFA01A82021FBF788
S31508005010BBFA44F25C300021C2F20000C4F201017E
S3150800502041F28733A72280E82600C0E90335C0E9A4
S315080050300555FEF781FB08B1FBF7A8FC4FF4805035
S31508005040129044F25C30C2F2000012A9FEF773FC1B
S3150800505008B1FBF79BFC44F25C30C2F20000FEF795
S3150800506099FE08B1FBF792FC0020CDE9100044F246
S315080050705C30C2F2000010A9FEF705FB08B1FBF789
S3150800508085FC60200990201D1821FBF77DFA44F263
S315080050905C30C2F2000021460822FEF72FFE08B156
S315080050A0FBF774FC01AC20461421FBF76DFA4FF4AC
S315080050B0005006900020089044F25C30C2F20000CE
S315080050C02146FEF7B8FA08B1FBF760FC44F25C30FB
S315080050D0C2F20000FEF7A0FD16B0B0BD80B586B0DE
S315080050E044F2EC3040F200420021C2F20000C4F261
S315080050F00002532340F2E73C0591CDE90311CDE9BF
S315080051000011C0E90023C0E9021C01618161FEF7B4
S3150800511013FB08B1FBF73AFC4FF48050029044F2B7
S31508005120EC30C2F2000002A9FEF705FC08B1FBF755
S315080051302DFC44F2EC30C2F200006946FEF7A3FAF1
S3150800514008B1FBF723FC06B080BD10B58EB000246D
S3150800515001A81C210D94CDE90B44CDE90844FBF7C1
S3150800516013FA44F2344040F60001C2F20000C4F2D9
S315080051700001532240F2E73380E816008021C0E997
S3150800518003348161FEF7D8FA08B1FBF7FFFB4FF449
S3150800519080500A9044F23440C2F200000AA9FEF791
S315080051A0CAFB08B1FBF7F2FB44F23440C2F2000036
S315080051B0FEF7F0FD08B1FBF7E9FB44F234400024A2
S315080051C0C2F2000008A9CDE90844FEF75CFA08B166
S315080051D0FBF7DCFB6020CDE9010444F23440C2F25F
S315080051E0000001A9082203940594FEF787FD08B17B
S315080051F0FBF7CCFB44F23440C2F20000FEF70CFD8C
S315080052000EB010BD80B586B044F27C4040F6004230
S315080052100021C2F20000C4F20002532340F2E73C28
S315080052200591CDE90311CDE90011C0E90023C0E9D4
S31508005230021C01618161FEF77FFA08B1FBF7A6FB44
S315080052404FF48050029044F27C40C2F2000002A95A
S31508005250FEF771FB08B1FBF799FB44F27C40C2F2FA
S3150800526000006946FEF70FFA08B1FBF78FFB06B098
S3150800527080BD80B544F2C44041F20001C2F200008C
S31508005280C4F2010100234FF00C0C4FF4E13280E820
S315080052900E00C0E90333C0E905C3C361FFF712F97D
S315080052A018B1BDE88040FBF771BB80BD10B544F26C
S315080052B00C5044F6000C48F2A062C2F20000C4F298
S315080052C0000CC0F201024FF4805300214FF4806EA7
S315080052D00424C0E900C2C0E90231C0E904E4C0E917
S315080052E00611FFF7EFF818B1BDE81040FBF74EBB03
S315080052F010BD80B544F2545041F20041C2F200009C
S31508005300C4F2010100234FF00C0C4FF4E13280E89F
S315080053100E00C0E90333C0E905C3C361FFF7D2F83D
S3150800532018B1BDE88040FBF731BB80BD80B543F2BC
S31508005330A07040F20801C2F20000C2F20001002289
S3150800534001F0C8F908B1FBF721FB43F2A07040F25F
S31508005350B801C2F20000C2F2000101F006FC08B171
S31508005360FBF714FB43F2A07040F25411C2F200009E
S31508005370C2F2000100F0C4FF08B1FBF707FB43F2D5
S31508005380A070C2F2000001F017FC18B1BDE8804019
S31508005390FBF7FCBA80BD0000FEE70000FEE743F617
S315080053A02060C2F20000FCF7D7BE7047806B016828
S315080053B04A6822F003024A60416D41F010014165D6
S315080053C0012180F85110FDF76FBE806BFDF761BFB4
S315080053D0806BFEF717B9B0B5846B0546FCF7C4F9C0
S315080053E029680968C90526D402462068A168436861
S315080053F023F02003436031B96168B1F5827F02D199
S315080054006FF0030101E06FF0010143681940416044
S315080054102046642100F043F808B12020606500208A
S31508005420E087012084F85100606D20B12046BDE870
S31508005430B040FDF739BE2046BDE8B040FDF728BFAD
S31508005440B0B5846B0546FCF78FF929680968C90564
S3150800545020D402462068416821F020014160204698
S31508005460642100F047F818B1606D40F020006065CF
S315080054702068416821F0030141600020E086E0874A
S31508005480012084F85100606D20B12046BDE8B04087
S31508005490FDF70ABE2046BDE8B040FEF781B8B0B5B4
S315080054A082B0044640680B46B0F5827F0ED1A068EC
S315080054B0B0F5004F02D0B0F5806F0BD12168B0F57A
S315080054C0806F0D6825F040050D6003D12046012147
S315080054D0009202E00092204680210022002500F07A
S315080054E049F820B1606D032540F020006065284624
S315080054F002B0B0BD70B582B00D4616460221012233
S315080055002B460446009600F035F828B1606D032551
