:020000040800F2
:10000000D00B002039020008812500083D2200089D
:100010007D25000831040008C12900080000000007
:10002000000000000000000000000000852500081E
:100030007B040008000000008325000887250008D5
:10004000530200085302000853020008530200083C
:10005000530200085302000853020008530200082C
:10006000530200085302000853020008530200081C
:10007000530200085302000853020008530200080C
:10008000630400086F0400085302000853020008CC
:10009000330400083F04000853020008530200081C
:1000A0005302000803260008530200085302000808
:1000B0000F2600081B260008530200085302000800
:1000C00053020008530200085302000853020008BC
:1000D00053020008530200085302000853020008AC
:1000E00053020008530200085302000800000000F9
:1000F0000000000000000000000000000000000000
:100100000000000000000000530200085302000835
:10011000530200085302000853020008530200086B
:10012000530200085302000853020008530200085B
:100130005302000800000000000000005302000805
:100140004B0400085704000853020008530200083B
:1001500000F002F800F060F814A696E8000CB24433
:10016000B344DA4501D100F057F8BAE80F000FA602
:1001700096E83000A5EB040504EB0607AAEB07049C
:10018000A7F101074FEA15154FEA3414A4F1010451
:10019000AC4201D300F040F813F0010F18BFFB1A76
:1001A00043F0010300F001F8DBE71847383A00009C
:1001B000583A00000A4410F8014B14F00F0508BF2C
:1001C00010F8015B240908BF10F8014B6D1E05D023
:1001D00010F8013B6D1E01F8013BF9D1641E03D0FC
:1001E000641E01F8015BFBD19142E4D3704700002B
:1001F000704700000023002400250026103A28BF85
:1002000078C1FBD8520728BF30C148BF0B60704788
:100210001FB51FBD10B510BD00F0D0F81146FFF797
:10022000F7FF03F035F900F0EEF803B4FFF7F2FF43
:1002300003BC00F0F5F80000094880470948004772
:10024000FEE7FEE7FEE7FEE7FEE7FEE7FEE7FEE786
:10025000FEE7FEE704480549054A064B70470000E3
:100260000126000851010008D0050020D00B002015
:10027000D0070020D007002053EA020C00F069806C
:100280002DE9F04B4FF00006002B1FBFB3FA83F5AA
:1002900003FA05F424FA05F65E4012BF1643B2FADB
:1002A00082F502FA05F4C5F120051EBF22FA05FC0D
:1002B00044EA0C04203556EA044C4FEA144418BFB3
:1002C000641C4FF000084FF00009904271EB030CE2
:1002D00039D3002919BFB1FA81F701FA07F6B0FA4C
:1002E00080F700FA07F6C7F120071EBF20FA07FCC7
:1002F00046EA0C062037B6FBF4FCA7EB0507103FD7
:1003000007F01F0BCBF120062CFA06F60CFA0BFBBC
:1003100044BFB3460026202FA4BF5E464FF0000B1B
:100320005BEA060C08BF4FF0010B19EB0B0948EB19
:100330000608ABFB027C06FB02CC0BFB03CCC01B0C
:1003400071EB0C01C1E70B46024641464846BDE849
:10035000F08B13B5084318BF4FF0FF300146AFF3E1
:100360000080BDE81C4070474FF0000200B5134606
:1003700094469646203922BFA0E80C50A0E80C50C5
:10038000B1F12001BFF4F7AF090728BFA0E80C5076
:1003900048BF0CC05DF804EB890028BF40F8042B6F
:1003A00008BF704748BF20F8022B11F0804F18BFDC
:1003B00000F8012B7047704770477047754600F092
:1003C0002BF8AE4605006946534620F007008546E7
:1003D00018B020B5FFF73EFFBDE820404FF0000603
:1003E0004FF000074FF000084FF0000BAC46ACE8B0
:1003F000C009ACE8C009ACE8C009ACE8C00921F00C
:1004000007018D46704710B50446AFF300802046C3
:10041000BDE81040FFF709BF004870478002002088
:1004200001491820ABBEFEE726000200704700001D
:10043000FEE740F2C430C2F2000000F07FB940F2A3
:10044000C430C2F2000000F079B940F2EC30C2F2E0
:10045000000000F073B940F2EC30C2F2000000F08E
:100460006DB940F21440C2F2000000F016BC40F238
:100470005840C2F2000000F010BC7047EFF310804B
:1004800072B600BFFEE790F82020013A012A04D896
:10049000006800F11402002004E000F124020120B1
:1004A0004FF48021136819431160704710B590F81C
:1004B00020E0D0F800C0AEF1010EBEF1010FDCF873
:1004C00008E010D81EF0E05F13D0CEF3016E0120DB
:1004D00000FA0EF018608B688BB14868CC6844EA6B
:1004E000C00003430FE000F1240101204FF48022FB
:1004F00023E000F1240101204FF400121DE0086800
:10050000CB6843EA40530CEB0E10C0F880310B6906
:10051000C0F88431097D012905D100F5C2710B684D
:1005200043F480730B605168C0F88C11126800F5B9
:10053000C071C0F88821002001220B681A430A60AC
:1005400010BD90F82020013A012A30D8B0B546F20B
:100550000060C4F20000026842F00102026002681A
:1005600022F47C520260D1F814E0CC694A6A036834
:10057000012C43EA022202600EF01F024FF0010339
:1005800003FA02F2C3696FEA020C23EA0203C361B1
:1005900013D02CBBC36803EA0C03C360CB688C8800
:1005A00044EA034300EBCE0423640B4611E0416AA6
:1005B00041F48021416201207047C3681343C36046
:1005C0000B688C8844EA034300EBCE04236401F1FA
:1005D0000C038C681B8843EA044300EBCE0463647D
:1005E00043688D6943EA0204D1F810E0096A002DDE
:1005F00008BF03EA0C0444604369BEF1000F43EAFC
:10060000020408BF03EA0C040129446102D1C16954
:100610001143C161016821F0010101600020B0BDFA
:10062000704710B590F82040013C012C77D8D0F8E5
:1006300000C000290CBFDCF80C40DCF81040A40717
:1006400073D00CEB011CDCF8B0410CF5D87E14F033
:1006500004049460DCF8B04119BFE4085460640DF0
:100660001460DEF800400CF5DA7E04F00204D46079
:10067000DCF8B44124075ABFDEF8004004F00F0450
:1006800008241461DEF800400029C4F307249461B3
:10069000DEF800404FEA14445461DCF8B8211A70C7
:1006A000026802EB0112D2F8B8214FEA12225A7006
:1006B000026802EB0112D2F8B8214FEA12429A7096
:1006C000026802EB0112D2F8B8214FEA1262DA7026
:1006D000026802EB0112D2F8BC211A71026802EB27
:1006E0000112D2F8BC214FEA12225A71026802EBC1
:1006F0000112D2F8BC214FEA12429A71026802EB51
:100700000112D2F8BC214FEA1262DA7100680CBF04
:1007100000F10C0100F11001002020220AE000F19C
:10072000240101204FF4802204E000F12401012083
:100730004FF400120B681A430A6010BD2DE9F04F08
:1007400081B0044600684669D0F804908768D0F804
:100750000CB0D0F810A0D0F81880F10701D1002516
:1007600049E0F9070ED00121BA07816007D4780764
:100770001DD4380721D4204600F088FA02E0204634
:1007800000F085FA0025F8051CD520684FF480712B
:10079000BA05816007D478050CD4380510D42046FA
:1007A00000F076FA0EE0204600F073FA0AE04FF40B
:1007B0000065E8E705F5005504E04FF48055E2E7F1
:1007C00005F58045F80316D520684FF48031BA034B
:1007D000816007D4780309D438030AD4204600F096
:1007E00059FA08E0204600F056FA04E005F5004505
:1007F00001E005F58035300707D51BF0100004D067
:10080000206845F400751021C160700708D51BF001
:10081000080005D020680821C160204600F0BAF920
:10082000B00706D52068C068800702D0204600F0D7
:10083000B2F9700607D51AF0100004D0206845F40C
:10084000806510210161B00608D51AF0080005D0B6
:10085000206808210161204600F0C3F9F00606D5A2
:1008600020680069800702D0204600F0BBF9B00381
:1008700008D519F0100005D02068102141602046ED
:1008800000F0D6F9F00308D519F0080005D020686B
:1008900008214160204600F0FFF9300440D55FEAAE
:1008A00049703AD506F4807008EA102028435FEAC0
:1008B0008871014648BF41F00201B20558BF0146A8
:1008C0005FEA48700D4648BF45F00405700558BF03
:1008D0000D46300521D518F070001ED010380009E3
:1008E000052815D8DFE800F00306090C0F1245F0C3
:1008F00008050DE045F010050AE045F0200507E089
:1009000045F0400504E045F0800501E045F48075C0
:100910002068816921F070018161206804214160B3
:100920004DB1606A40EA05012046616201B0BDE850
:10093000F04FFFF775BE01B0BDE8F08FD0B1B0B594
:10094000044690F8200010B9204600F06FF82068A7
:10095000016841F00101016000F015FC054600BF8F
:1009600020684168C90707D100F00DFC401B0B2827
:10097000F6D312E001207047016821F00201016006
:1009800000F001FC054600BF2068416889070BD5CF
:1009900000F0F9FB401B0B28F6D3606A052140F4F8
:1009A0000030606201203EE0217E0268012922F0D1
:1009B000800208BF80320260617E0268012922F055
:1009C000400208BF40320260A17E0268012922F085
:1009D000200208BF20320260E17E0268012922F075
:1009E000100218BF10320260217F0268012922F034
:1009F000080208BF08320260617F0268012922F004
:100A0000040208BF04320260D4E901C2D4E903350C
:100A100061691A432A431143ACF101021143C161D8
:100A200000200121606284F82010B0BDB0B586B00E
:100A3000006846F60001C4F2000188424FF0000150
:100A4000CDE90411CDE902114FD046F20041C4F2C4
:100A50000001884240F09C8040F28831C2F20001DF
:100A60000A6841F21800C4F20200531C0B6042B93C
:100A7000416841F000714160416801F000710191ED
:100A80000199016840F6004441F0080101600068E6
:100A9000C4F2010400F00800019001984FF4807046
:100AA0000290002002ADCDE903002046294600F067
:100AB0006DFA4FF40070029002200390032005901D
:100AC0002046294600F062FA0420C4F201000168C1
:100AD00049F6FF72CFF6FF02114041F0E06141F4A8
:100AE000804101601524142542E041F21800C4F24F
:100AF0000200416841F080614160416801F080611D
:100B00000191019940F28831C2F200010A68531C38
:100B10000B6042B9416841F000714160416801F0E9
:100B2000007101910199016840F6004441F008010B
:100B300001600068C4F2010400F00800019001980F
:100B40004FF480500290002002ADCDE90300204612
:100B5000294600F01BFA4FF4005002900220039047
:100B6000032005902046294600F010FA4124402534
:100B700028460021002200F085FB284600F072FB89
:100B800020460021002200F07DFB204600F06AFB99
:100B900006B0B0BD7047B0B5016846F60002C4F2B9
:100BA000000291420BD046F20042C4F20002914290
:100BB00018BFB0BD40F21835C2F2000503E040F2A4
:100BC0005C35C2F200052C1D05F1200300212246F0
:100BD000FFF727FD05F1280001682046BDE8B04079
:100BE00008477047B0B5016846F60002C4F200023B
:100BF00091420BD046F20042C4F20002914218BF6B
:100C0000B0BD40F21835C2F2000503E040F25C3599
:100C1000C2F200052C1D05F1200301212246FFF739
:100C200000FD05F1280001682046BDE8B0400847F6
:100C300070470000B0B5044690F8200001281CD190
:100C4000022084F820002068016821F00101016081
:100C500000F099FA054600BF20684068C00712D02E
:100C600000F091FA401B0B28F6D3606A40F4003084
:100C70006062052084F8200003E0606A40F40020F0
:100C800060620120B0BD00206062B0BD7047704757
:100C90007047704770477047704710B5D0E90FE351
:100CA000D0F800C0DEF80020DCF80010DA4054076D
:100CB0002BD511F0040428D0DCF80010890605D4E7
:100CC000DCF8001021F00401CCF800100422C4F27A
:100CD000020202F17C018C4548D940F20841C4F27D
:100CE00002018C4500F0A18040F21C41C4F20201D7
:100CF0008C4500F09C8040F23041C4F202018C45EA
:100D000040F097804FF480619BE0940743D511F049
:100D1000020440D0DCF80010890608D4DCF800108A
:100D200021F00A01CCF80010012180F821100422E2
:100D3000C4F2020202F17C018C4543D940F2084121
:100D4000C4F202018C4500F0A18040F21C41C4F2C3
:100D500002018C4500F09C8040F23041C4F2020157
:100D60008C4540F097804FF400719BE04321C4F222
:100D700002018C453ADD6B21C4F202018C4547DC4F
:100D80004421C4F202018C4500F08F805821C4F246
:100D900002018C4558E0120740F1A98011F00801CA
:100DA00000F0A580DCF8001021F00E01CCF8001056
:100DB000012101FA03F2CEF80420816380F82110AA
:100DC000016B8FE04321C4F202018C453FDD6B21B2
:100DD000C4F202018C454CDC4421C4F202018C4572
:100DE00075D05821C4F202018C4566E00821C4F296
:100DF00002018C455CD01C21C4F202018C455FD0FD
:100E00003021C4F202018C451ED14FF4806158E0BC
:100E10006C21C4F202018C454CD08021C4F2020145
:100E20008C4511D14FF080614BE0042109E0402155
:100E300007E002F588634FF480219C4508BF4FF41A
:100E40008041C2F800143DE04FF4802139E00821D0
:100E5000C4F202018C453DD01C21C4F202018C4534
:100E60003DD03021C4F202018C4526D14FF40071EF
:100E700036E06C21C4F202018C452DD08021C4F2F1
:100E800002018C4519D14FF0007129E0022109E0DF
:100E9000202107E002F588634FF400319C4508BF2C
:100EA0004FF40051C2F800141BE04FF4804108E0F9
:100EB000042106E04FF4800103E04FF400310FE01D
:100EC00040211160C16A91B1BDE8104008474FF45C
:100ED000005105E0022103E04FF4001100E0202161
:100EE0001160816A0022002980F82020ECD110BD19
:100EF000014600284FF0010008BF70472DE9F0437C
:100F000040F20043C4F20203D1F800E04FF6F83299
:100F100003F1080CCBF6FD72E64538BF02F580629E
:100F200002EB0E0C4CF6CD42CCF6CC42ACFB022CC4
:100F30006FF00306D1E90129D1F80C8038BFA3F581
:100F4000806306EA9C06C1E90F36022381F821304E
:100F5000DEF8003043F6F076B3431A43D1E9046576
:100F600042EA090242EA0802D1E9067432432A43FE
:100F70003A432243CEF8002000228A6381F8210000
:100F800081F820200020BDE8F04370472DE9F04FA4
:100F900082B00E68002E00F0EE8041F20042C4F2F2
:100FA0000102042340F2004E904208BF03234FF693
:100FB000FF7CC4F2010E009300240123C1F2100C47
:100FC0004FF0000A4FF0000903FA0AFB16EA0B087B
:100FD00000F0C8804E68664508DC032E34D8DFE890
:100FE00006F028023E42D1F80C9043E04FF6FF7223
:100FF000C1F2210296420DDC0022C1F2110296429A
:1010000017D00022C1F21202964212D00022C1F281
:1010100021020CE00022C1F22202964209D00022F5
:10102000C1F23102964204D00022C1F2320296424D
:1010300020D18A6882B1012A14BFC0F814B0C0F868
:1010400010B04FF0080915E0112E0FD0122E11D15B
:10105000CA6802F10C090DE04FF004090AE0CA6801
:1010600002F1080906E04FF0000903E0CA6802F146
:10107000040900BF22460646B8F5807F24BF203A07
:10108000043637680F25954027EA050509FA02F26C
:101090002A433260CA79D20664D541F21803C4F2F9
:1010A00002031A68AEF57E7642F001021A601A68F1
:1010B00002F001020192019A2AF0030256F802B0EE
:1010C00040F60002C4F20102904210D040F6004205
:1010D000C4F20102904208D041F20002C4F20102BF
:1010E000009F904208BF022702E0012700E000278E
:1010F00004F00C030F229A402BEA020207FA03F3D2
:101100004FEA9A051A4346F825204E6840F20C45EE
:10111000F202DEF8082054BF22EA080242EA08027E
:10112000C4F20105CEF808202A68B30254BF22EAAF
:10113000080242EA08022A60B303DEF8042054BF22
:1011400022EA080242EA0802F303CEF80420DEF89D
:1011500000204FF0010354BF22EA080242EA0802CD
:10116000CEF800200E680AF1010A36FA0AF204F1FC
:1011700004047FF429AF02B0BDE8F08F002A08BF55
:1011800009040161704740F2C450C2F200000068D7
:10119000704740F2040040F2C451C2F20000C2F2B3
:1011A000000100780A6810440860704780B542F278
:1011B0000000C4F20200016841F010010160032048
:1011C00000F08BF80F2000F004F800F02AF800205F
:1011D00080BDB0B540F20402C2F2000240F200014C
:1011E0001278C2F200014FF47A730968B3FBF2F28D
:1011F0000446B1FBF2F1084600F0CEFB0F2C4FF095
:1012000001050CD858B94FF0FF30214600220025C7
:1012100000F038F840F20800C2F2000004602846EE
:10122000B0BD82B041F21800C4F20200016802228F
:1012300041F001010160016801F001010191019992
:10124000416841F080514160406800F0805000905A
:1012500000980420C4F20100016862F31A61016081
:1012600002B0704700280CD400F01F01012202FADE
:1012700001F11C2202EAD0004EF20012CEF200026E
:101280008150704710B54EF60C5CCEF2000CDCF8C5
:101290000030C3F3022E8EF00704042C28BF042470
:1012A000BEF103034FF0FF3E0EFA04F438BF0023F3
:1012B000A14399400EFA03F39A43114300F00F0241
:1012C00000F160430901043A03F5644362440028D5
:1012D00048BF02F10C03197010BD4EF60C51CEF24E
:1012E00000010A684FF6FF031A4060F30A2242F039
:1012F000806040F0FD70086070470000002800F03A
:1013000081802DE9F04381B042F20008C4F2020866
:101310000446D8F800000D4600F0070088420CD2C1
:10132000D8F8000020F007002843C8F80000D8F8DB
:10133000000000F00700A8426FD1206841F20409C4
:101340008107C4F2020917D5410705D5D9F8001065
:1013500041F4E061C9F80010010705D5D9F8001083
:1013600041F46051C9F80010D9F80010A26821F0CA
:10137000F0011143C9F80010C00745D1D8F80000AA
:1013800000F00700A8420CD9D8F8000020F00700B0
:101390002843C8F80000D8F8000000F00700A84271
:1013A0003BD12068410707D5D9F80010E26821F445
:1013B000E0611143C9F80010000708D5D9F8000012
:1013C000216920F4605040EAC100C9F8000000F033
:1013D00073F8D9F8001043F6CC32C1F30311C0F60C
:1013E0000002515C40F2000220FA01F140F20800D4
:1013F000C2F200000068C2F200021160FFF7E9FECD
:1014000000200BE0012070476068022809D0012805
:1014100027D159F8041C890307D4012001B0BDE885
:10142000F08359F8041C8901F7D5D9F8001021F090
:1014300003010843C9F80000FFF7A5FE064641F284
:10144000883700BFD9F80000616800F00C00B0EBED
:10145000810F93D0FFF797FE801BB842F2D903208B
:10146000DCE759F8041C8907D7D5DEE740F2000015
:1014700041F20401C2F20000C4F2020100680968EE
:1014800043F6DC32C1F30221C0F60002515CC840D1
:10149000704740F2000041F20401C2F20000C4F2C1
:1014A00002010068096843F6DC32C1F3C221C0F6CC
:1014B0000002515CC8407047B0B541F22C01C4F243
:1014C000020151F8283C03F00C00082841F20020EA
:1014D000C0F27A0018BFB0BDC3F3834518A2525DB5
:1014E000DB0305D440F60010C0F23D005043B0BD10
:1014F0000B6817A403F00F03E35C0C68E40303D448
:101500005043B0FBF3F013E00C680968C4F3031414
:1015100004F1010C42F20044C1F30321C0F2F404CF
:1015200001FB0040A0FB0201ACFB0323FEF7A4FE7D
:10153000A5F10D01B1FA81F14909C840B0BD00BF64
:10154000000004050607080900000000000D000067
:101550000102030405060708090A0B0C0D0E0F1003
:1015600000284CD02DE9F04182B00446007841F2C9
:101570000006C007C4F202060BD0706800F00C0031
:1015800004283ED13068800303D5A068002800F00D
:10159000B8812078800719D5706810F00C0F07D03B
:1015A000706800F00C00082847D17068C00344D46C
:1015B0003068800703D56069012840F0A281306857
:1015C000A16920F0F80040EAC100306020780007EF
:1015D0006ED5E069002846D00020C4F242200121E7
:1015E000C0F88014FFF7CFFD054600BF706A800782
:1015F0004BD4FFF7C8FD401B0228F7D94DE101206D
:101600007047706800F00C00082802D17068C003B1
:10161000B8D4A068002800F01381B0F5A02F00F026
:101620002781B0F5803F00F02781306820F48030BA
:101630003060306820F4802021E16069002840F2A9
:101640000000C4F2422000F0B18001210160FFF7E8
:101650009AFD054630688007B1D4FFF794FD401B22
:101660000228F7D919E10020C4F242200021C0F875
:101670008014FFF788FD0546706A800718D5FFF7CC
:1016800082FD401B0228F7D907E140F20000C2F2B8
:101690000000006844F6D351C1F26201A0FB0101D1
:1016A000480A019000BF0198411E00280191F9D11C
:1016B0002078400730D4E06A002800F00C8171687F
:1016C000C90308D5716801F00C01082903D1F16A3A
:1016D000C90300F11681022851D13068C00006D537
:1016E000F06A616B00F0F000884240F00A81002748
:1016F000C4F242270020B866FFF745FD054600BF4B
:101700003068000140F1CB80FFF73DFD401B6428AD
:101710004FF00300F4D9F5E0F0695FEAC00808D49F
:10172000F06940F08050F061F06900F08050009066
:10173000009847F20007C4F200073868C00510D4CB
:10174000386840F480703860FFF71DFD054600BF23
:101750003868C00505D4FFF716FD401B6428F7D98B
:101760009BE02069A0B305284BD001284DD0306AFA
:1017700020F001003062306A20F0040048E0F06A96
:10178000002120F48030F0620020C4F24220816603
:10179000FFF7F9FC054600BF3068000140F19B806F
:1017A000FFF7F1FC401B6428F6D976E000210160C8
:1017B000FFF7E9FC054600BF306880077FF506AFFC
:1017C000FFF7E1FC401B02284FF00300F4D999E039
:1017D000306A20F001003062306A20F0040030628C
:1017E000FFF7D1FC054641F2883700BF306A800719
:1017F0001DD5FFF7C8FC401BB8424FF00300F5D9D8
:1018000080E0306A40F004003062306A40F001004D
:101810003062FFF7B8FC054641F28837306A80072E
:1018200005D4FFF7B0FC401BB842F7D935E0B8F15A
:10183000000F3FF540AFF06920F08050F0613AE7CB
:10184000306820F480303060306820F480203060D0
:10185000FFF799FC054600BF306880037FF599AE1D
:10186000FFF791FC401B64284FF00300F4D949E0D6
:10187000306840F480203060306840F48030306060
:10188000FFF781FC054600BF306880033FF581AE5D
:10189000FFF779FC401B6428F6D9032032E0F06A98
:1018A000D4E90C1220F0F0001043F062F06A20F44A
:1018B00070600843F0620120B866FFF764FC0546DB
:1018C0003068000107D4FFF75EFC401B64284FF02E
:1018D0000300F5D916E0256A8DB1706800F00C00A0
:1018E000082812D1012D0CD07068616A00F4803292
:1018F0008A4206D1A16A00F47010884201D100200A
:1019000000E0012002B0BDE8F0810027C4F24227C8
:1019100000203866FFF737FC022D05460CD100BFCA
:101920003068800113D5FFF72EFC401B02284FF0D2
:101930000300F5D9E6E700BF30688001DFD5FFF787
:1019400022FC401B02284FF00300F5D9DAE7606A59
:10195000B0F5803F09D1F16A6268E3681143F16232
:10196000F16A21F00F011943F1627168A26A21F452
:10197000741111430843706001203866FFF703FCBF
:10198000044630688001BAD4FFF7FDFB001B022833
:101990004FF00300F5D9B5E7411E0020B0EB116F01
:1019A0001CBF012070474EF21002CEF200025160BF
:1019B0004EF62351CEF20001F0230B700721906008
:1019C000116070477047704790F83C20012A01D1A0
:1019D00002211FE0B0B501F108053CCDD1E900CEF0
:1019E00023F47C5322F470521A432EF4F0431A432A
:1019F0002CF4E0431A4324F4C0431A432A43C96930
:101A000022F48042036811435964002180F83C109D
:101A1000BDE8B0400846704790F83C20012A4FF0DE
:101A2000020237D010B580F83D200268D2F804E0F9
:101A3000D2F808C00C682EF07003234340F2FF7404
:101A4000C4F20004A24253600EDD40F60003C4F26B
:101A500000039A4211D042F60043C4F201039A42B5
:101A60000BD040F6004304E0B2F1804F05D040F2C5
:101A70000043C4F200039A4204D149682CF0800369
:101A8000194391600121002280F83D1080F83C202C
:101A9000BDE810401046704740B310B5044690F8BA
:101AA0003D0028B9002084F83C00204600F020F8D2
:101AB000022084F83D002068211D00F0B4FD0120C3
:101AC00084F8460084F83E0084F83F0084F8400023
:101AD00084F8410084F8420084F8430084F844000C
:101AE00084F8450084F83D00002010BD01207047B7
:101AF00010B584B00068B0F1804F1FD040F20041B3
:101B0000C4F2000188422BD042F60041C4F2010128
:101B100088421CBF04B010BD41F21800C4F202009C
:101B20000168002241F4006101600068002100F4B6
:101B30000060039003981920192422E041F2180054
:101B4000C4F202004168002241F001014160406896
:101B5000012100F00100029002981C201C2410E0DA
:101B600041F21800C4F202004168002241F0020173
:101B700041604068002100F00200019001981D20A2
:101B80001D24FFF77FFB204604B0BDE81040FFF79F
:101B900069BB90F83D1001291CBF0120704702214C
:101BA00080F83D10006840F2FF72C168C4F2000284
:101BB000904241F00101C1600EDD40F60001C4F227
:101BC0000001884211D042F60041C4F2010188426E
:101BD0000BD040F6004104E0B0F1804F05D040F258
:101BE0000041C4F20001884204D1816801F007017C
:101BF000062903D0016841F001010160002070470F
:101C000090F83C20012A4FF0020200F0C38080B51A
:101C100080F83D20D0F800C04FF67772DCF808302D
:101C200023EA0202CCF808200B684F2B28DC1F2B7C
:101C300044DD202B45D0302B43D0402B40F0AC80EE
:101C4000D1F804E0C968DCF82030DCF8202022F06C
:101C50000102CCF82020DCF8182022F0F00242EA41
:101C6000011123F00A0242EA0E02CCF81810CCF857
:101C70002020DCF8081041F0470121F030017EE01F
:101C80006F2B26DDB3F5005F47D0B3F5805F78D0CA
:101C9000702B40F08180D1E901E3C968DCF80820AD
:101CA00043EA0E0322F47F4243EA01211143CCF8B8
:101CB0000810DCF8081041F0770160E00BB1102B40
:101CC0006AD1DCF8081021F07001194341F00701D6
:101CD00055E0502B34D0602B5ED1D1F804E0C968B8
:101CE000DCF82030DCF8202022F01002CCF8202094
:101CF000DCF8182022F4704242EA013123F0A002FD
:101D000042EA0E12CCF81810CCF82020DCF80810AB
:101D100041F0670121F0100131E0D1E901E3C96828
:101D2000DCF8082043EA0E0322F47F4243EA012153
:101D30001143CCF80810DCF8081041F480411EE093
:101D4000D1F804E0C968DCF82030DCF8202022F06B
:101D50000102CCF82020DCF8182022F0F00242EA40
:101D6000011123F00A0242EA0E02CCF81810CCF856
:101D70002020DCF8081041F0570121F02001CCF8B8
:101D800008100022012180F83D10002180F83C104D
:101D9000BDE88040104670470122F3E7704710B558
:101DA000016804460869800744BFC8685FEA80701C
:101DB00038D40869400744BFC8685FEA40703DD422
:101DC0000869000744BFC8685FEA007043D4086927
:101DD000C00644BFC8685FEAC06048D40869C0074D
:101DE0001CBFC8685FEAC0704ED10869000644BFD6
:101DF000C8685FEA00604FD40869400644BFC868FD
:101E00005FEA406050D40869800646BFC8685FEA50
:101E1000806010BD6FF0200220460A61BDE81040CE
:101E2000FFF7D1BD6FF002000861012020778869BB
:101E3000800741D02046FFF7B1FF43E06FF0040078
:101E4000086102202077886910F4407F3ED0204648
:101E5000FFF7A4FF40E06FF008000861042020773E
:101E6000C86980073CD02046FFF798FF3EE06FF03E
:101E70001000086108202077C86910F4407F39D02D
:101E80002046FFF78BFF3BE06FF001000861204622
:101E900000F0DCF82168A8E76FF0800008612046B8
:101EA000FFF790FD2168A7E76FF04000086120462A
:101EB00000F027F92168A6E7204600F04BF82046FD
:101EC00000F0C3F821680020207772E7204600F078
:101ED00041F8204600F0B9F82168002020776FE72C
:101EE000204600F037F8204600F0AFF821680020C7
:101EF00020776CE7204600F02DF8204600F0A5F88A
:101F000021680020207769E780B586B0014640F659
:101F10000000C4F20100096800F510530022994244
:101F2000049215D141F21801C4F202010A6842F08C
:101F300004020A60096801F00401019101994FF45B
:101F40008061029102210391059102A9FFF71EF819
:101F500006B080BD70470000B0B5044690F83C0064
:101F6000012804BF0220B0BD0D464FEAB201012096
:101F7000032984F83C0037D8DFE801F0020A122276
:101F80002068294600F0F6FB206850F8181F0EE084
:101F90002068294600F01AFC206850F8181F16E047
:101FA0002068294600F042FC206850F81C1F41F0D0
:101FB00008010160016821F00401016029690FE056
:101FC0002068294600F062FC206850F81C1F41F48C
:101FD00000610160016821F48061016029690902E2
:101FE0000268114301600020002184F83C10B0BD5C
:101FF00040B310B5044690F83D0028B9002084F89D
:102000003C00204600F020F8022084F83D002068C3
:10201000211D00F008FB012084F8460084F83E00F2
:1020200084F83F0084F8400084F8410084F84200BE
:1020300084F8430084F8440084F8450084F83D00A7
:10204000002010BD0120704770477047006840F6BF
:10205000FF31C4F20001884216DD41F2FF31C4F2C3
:102060000001884224DC40F60041C4F200018842AD
:1020700030D041F20001C4F20001884240D140F268
:10208000B430C2F2000038E0B0F1804F27D040F207
:102090000041C4F20001884226D040F60001C4F29B
:1020A000000188422CD140F2A430C2F2000024E0AA
:1020B00041F20041C4F2000188421AD042F60041C8
:1020C000C4F20101884218BF704740F28C30C2F25E
:1020D000000012E040F2AC30C2F200000DE040F22D
:1020E0009430C2F2000008E040F29C30C2F20000DE
:1020F00003E040F2BC30C2F2000004300068004748
:102100007047704758B310B5044690F8410028B99D
:10211000002084F84000204600F023F8242084F8B2
:1021200041002068C16821F40051C160204600F0E0
:10213000FEFB2068016921F490410161416921F0B1
:102140002A014161C16841F40051C1600020202191
:10215000606484F8411084F84210606310BD01206F
:1021600070472DE9F04385B040F600050446C4F2FF
:1021700001050068A5F5444100278842039759D11D
:1021800041F21800C4F20200416801AE41F400318E
:102190004160416840F26C0801F4003100910099FF
:1021A0000168C4F2020841F0040101600068314690
:1021B00000F004000090009804200190022002909A
:1021C000032004902846FEF7E1FE0820CDE9010730
:1021D000284631460397FEF7D9FE40F21445C2F275
:1021E000000580264FF400592846C5E90087C5E957
:1021F0000276C5E90477C5E90679FEF779FE08B1EC
:10220000FEF73CF9E5636C6240F2584508F11400B2
:10221000C2F200051021002285E847002846C5E9E2
:102220000422C5E90629FEF763FE08B1FEF726F988
:10223000A5636C6205B0BDE8F0830000FEE780B5E1
:1022400040F2C43046F20041C2F20000C4F2000184
:102250000422002380E80E0000F10C014FF4802CD2
:102260004FF4001E81E808504FF480710183C0F8DC
:102270001A30FEF763FB18B1BDE88040FEF7FEB8E8
:1022800080BD10B540F2EC3046F60001C2F200000D
:10229000C4F2000140F2001404220023C0F2010441
:1022A00080E80E0000F10C014FF4003C4FF4800E6A
:1022B00081E8085084618383FEF740FB18B1BDE8D4
:1022C0001040FEF7DBB810BD80B582B041F21400BB
:1022D000C4F202000168002241F0010101600068BF
:1022E000002100F00100019001981020FEF7CAFFC4
:1022F0001020FEF7B7FF112000210022FEF7C2FFD9
:10230000112002B0BDE88040FEF7ACBFB0B584B08C
:1023100041F21800C4F20200016840F6004441F0A6
:10232000200101600168C4F2010401F02001009164
:1023300000990168002241F0040101600168032551
:1023400001F0040100910099016841F00801016069
:102350000068032100F00800009000982046FEF776
:102360000DFF012001900220CDE9020069462046C0
:102370000095FEF70BFE04B0B0BD70B596B009AE87
:10238000002530461C211595CDE91355CDE9105592
:10239000FDF7EAFF01A82021FDF7E6FF40F29C408F
:1023A00042F60041C2F20000C4F2010140F2E733FC
:1023B0008024242280E82600C0E90335C0E90554C2
:1023C000FFF76AFB08B1FEF759F84FF480501290FE
:1023D00040F29C40C2F2000012A9FFF711FC08B1C4
:1023E000FEF74CF840F29C40C2F20000FFF700FEFE
:1023F00008B1FEF743F80020CDE9100040F29C4000
:10240000C2F2000010A9FFF707FB08B1FEF736F88B
:1024100060200990301D1821FDF7A6FF40F29C4076
:10242000C2F2000031460822FFF796FD08B1FEF720
:1024300025F801AC20461421FDF796FF4FF400501B
:1024400006900020089040F29C40C2F20000214615
:10245000FFF7BAFA08B1FEF711F840F29C40C2F259
:102460000000FFF751FD16B070BD80B586B040F298
:10247000E4400021C2F200004FF08042472340F2C6
:10248000E73C0591CDE90311CDE90011C0E9002336
:10249000C0E9021C01618161FFF7FEFA08B1FDF796
:1024A000EDFF4FF48050029040F2E440C2F2000091
:1024B00002A9FFF7A5FB08B1FDF7E0FF40F2E440F9
:1024C000C2F200006946FFF7A7FA08B1FDF7D6FF90
:1024D00006B080BD80B586B040F22C5040F200427C
:1024E0000021C2F20000C4F2000248234FF47A7CBB
:1024F0000591CDE90311CDE90011C0E90023C0E940
:10250000021C01618161FFF7C7FA08B1FDF7B6FF50
:102510004FF48050029040F22C50C2F2000002A909
:10252000FFF76EFB08B1FDF7A9FF40F22C50C2F295
:1025300000006946FFF770FA08B1FDF79FFF06B08B
:1025400080BD80B540F2745044F20041C2F20000F8
:10255000C4F2000100234FF00C0C4FF4E13280E88C
:102560000E00C0E90333C0E905C3C361FFF7CAFD2C
:1025700018B1BDE88040FDF781BF80BDFEE70000D7
:10258000FEE770477047FEF704BE000070B594B0D8
:1025900006AC04F110002821FDF7E6FE01200690AC
:1025A00000250B904FF4E0104FF480310226CDE966
:1025B00010052046089109950795CDE90E61FEF7B3
:1025C000CFFF20B1EFF3108072B600BFFEE70F20FF
:1025D000CDE901064FF48060CDE9040501A8022190
:1025E0000395FEF78BFE20B1EFF3108072B600BFAB
:1025F000FEE77020C4F242200121016014B070BDDA
:10260000704740F29C40C2F20000FFF7C8BB40F2A6
:10261000E440C2F20000FFF7C2BB40F22C50C2F20D
:102620000000FFF7BCBB10B540F2FF7242F6004C51
:102630000368C4F2000240F6000EC4F2010C90429E
:10264000C4F2000E06DD70450DD060450BD040F69B
:10265000004404E0B0F1804F05D040F20044C4F2E1
:102660000004A04203D14C6823F07003234390423E
:1026700006DD70450DD060450BD040F6004204E009
:10268000B0F1804F05D040F20042C4F20002904207
:1026900003D1CA6823F4407313434C6923F08002CA
:1026A000D1F800E08B68224360450260C362C0F845
:1026B00028E002D10969CCF830100121416110BD38
:1026C000026840F6FF33C4F200039A4216DD41F27D
:1026D000FF33C4F200039A4224DC40F60043C4F204
:1026E00000039A4230D041F20003C4F200039A4240
:1026F0003FD140F2B432C2F2000238E0B2F1804F72
:1027000027D040F20043C4F200039A422BD040F697
:102710000003C4F200039A422BD140F2A432C2F269
:10272000000224E041F20043C4F200039A4215D0B3
:1027300042F60043C4F201039A4218BF704740F2C8
:102740008C32C2F2000212E040F2AC32C2F200025D
:102750000DE040F29432C2F2000208E040F2BC32D6
:10276000C2F2000203E040F29C32C2F20002C2E96F
:102770000001704770B5036A026A42F6004422F015
:1027800001020262C4F201044268D0F818E0A042DB
:102790008C68D1F800C023F0020343EA04030BD194
:1027A000CC68D1E9055622F4407223F00C0324F0E2
:1027B00004042A43234332432EF0730646EA0C06F0
:1027C0004260866149684163036270BDF0B5036A87
:1027D000026A42F6004422F010020262C4F20104CE
:1027E0004268D0F818E0A0428C68D1F800C023F00D
:1027F000200343EA04130FD1CC68D1E905566FF0EA
:10280000400723F0C00307EA0414234322F4406284
:1028100045EA060442EA84022EF4E64747EA0C271A
:1028200042608761496881630362F0BDF0B5036A65
:10283000026A42F6004422F480720262C4F2010489
:102840004268D0F81CE0A0428C68D1F800C023F4A4
:10285000007343EA04230FD1CC68D1E90556240262
:1028600040F2FF4723F44063BC43234322F4405229
:1028700045EA060442EA04122EF0730747EA0C0701
:102880004260C7614968C1630362F0BDB0B5D0F86A
:1028900020C0026A42F6004522F480520262426879
:1028A000C3690C68D1F808E0C4F20105A84204D15C
:1028B0004D6922F4804242EA851223F4E64343EA5A
:1028C00004234260C3612CF40055496845EA0E3286
:1028D00001640262B0BD10B540F2C43042F60F315F
:1028E000C2F20000C0F6000100F09BF940F2EC30AB
:1028F00042F65F31C2F20000C0F6000100F091F92B
:1029000040F2E444C2F2000442F66121C0F6000144
:102910002046FFF7D5FE40F20C00C2F20000012174
:1029200000F0B8F92046BDE81040FFF732B910B505
:1029300004460068D4E902C22369016921F44051C8
:1029400011430161616943EA0C021143C26841F21B
:102950000C639A431143C1604169A26921F440713B
:10296000114343F60002C4F201029042416102D0D9
:10297000FEF77CFD01E0FEF78CFDD4E90023192170
:1029800048439900B0FBF1F048F21F51C5F2EB113A
:10299000A0FB013463094FF69C74C0F6FF7403FB7F
:1029A0000400322404EB0010A0FB0101F02000EA37
:1029B000511000EB0310C1F343110844906010BDA7
:1029C000FEE7000040F2C432C2F20002904211D091
:1029D00040F2EC32C2F20002904218BF7047881EEB
:1029E000C1B2092982BF40F24C30C2F200007047E8
:1029F00007A104E0881EC1B20A2904D20EA140B288
:102A000051F82000704740F20830C2F200007047D1
:102A10004E030020500300205203002044030020F6
:102A200046030020480300204A03002054030020EE
:102A300056030020580300200A0300200C03002046
:102A40000E030020000300200203002004030020E6
:102A500006030020100300201203002014030020AE
:102A600040F2BC50C2F2000001680131016040F246
:102A7000C050B1F5FA6FC2F2000002D90121017015
:102A800001E0007850B180B540F20C00C2F20000C5
:102A900000F0FEF8BDE8804000F06DB87047427865
:102AA0000A7000784870704710B58AB0CC08059459
:102AB0004FF0000C8C07CDF818C009D44FEA421C27
:102AC0005A0102F1100300224FF0000E00240AE028
:102AD0004FEAC20CC2F34F3EDA0061F3420CC3F37B
:102AE0004F34931D0122C1F3800104910E210991FD
:102AF0000121089169460792CDE900ECCDE9024336
:102B0000FDF71FFD08B1FDF7B9FC0AB010BD016863
:102B10000A2912D040F20222914218D040F201223A
:102B2000914218BF704700F11C0140F20C00C2F244
:102B3000000000F58A7000F039BA00F11C0140F283
:102B40000C00C2F2000000F50C7000F0A6B800F115
:102B50001C0140F20C00C2F2000000F027BA00682D
:102B600040F20111884218BF704740F20C00C2F2D7
:102B7000000000F08DB870B588B040F2C4344FF456
:102B80000070C2F2000440F20832029000250826CC
:102B9000C2F2000202A901AB2046CDE9035505951A
:102BA0000696FDF783FC0A2040F2E022CDE90205FB
:102BB000C2F2000202A901AB2046CDE904550696F7
:102BC000FDF774FC0B2040F2E822CDE90205C2F2C9
:102BD000000202A901AB2046CDE904550696FDF797
:102BE00065FC0C2040F2F022CDE90205C2F20002A1
:102BF00002A901AB2046CDE904550696FDF756FC27
:102C00000D2040F2F822CDE90205C2F2000202A92D
:102C100001AB2046CDE904550696FDF747FC08B008
:102C200070BDB0B50446006846F20042C4F200022E
:102C300090420CD046F60002C4F2000290421AD133
:102C400040F25C307022C2F20000702505E040F2D4
:102C500018300C250022C2F2000004608162204678
:102C6000114600220023FFF71FFF204629460022BD
:102C70000023FFF719FF2046FDF7DCFF2046022165
:102C8000FDF701FC20461021BDE8B040FDF7FBBB7D
:102C900000F05BBA012100F072BAC16990F82E20F1
:102CA0000131012AC16119D10168D1E90821D3B2EA
:102CB000072BC0F81110C0F80D2018BF7047120E76
:102CC000438B42EA012191FBF3F202FB131CCCEB94
:102CD0004C3292FBF3F2C0E9091C82857047000078
:102CE00090F82E1001390E2988BF7047DFE801F0F7
:102CF000080E141C2834427A7A7A7A515D7A6B0075
:102D0000042102794171012182712AE004210279B2
:102D100041710221827134E004214171017990F8FE
:102D20002F20817103212CE00421417140F2C85110
:102D30000279C2F200010968827140F204424DE05A
:102D40000421417140F2C8510279C2F200010968C0
:102D500082714EF6050241E00279042141718271CF
:102D60000621C17140F2C851C2F200010A68097916
:102D7000826026E004214171017990F83020817150
:102D80000721C17140F2C851C2F200010968027204
:102D900026E00421417140F2C8510279C2F20001DB
:102DA000096882714FF4867218E0072141710D2184
:102DB000C17140F200110279C4F2235181600021F7
:102DC0008271017370470421417140F2C851027948
:102DD000C2F200010968827140F20F12A0F80720C8
:102DE000C0F809107047FFF77BBFB0B50C6846F21A
:102DF0000041C4F20001DDE905EC8C4204990AD0DF
:102E000046F60005C4F20005AC4209D140F25C343C
:102E1000C2F2000403E040F21834C2F2000404607D
:102E200080F82F10A2F10B010271CAB2022A80F8B9
:102E30002E3080F830E080F831C007D843F6C03239
:102E400049B2C0F6000252F8211003E040F2E0213E
:102E5000C2F20001D0F80920D0F805004A600860ED
:102E6000B0BD2DE9F04383B0D0F8A850044605F179
:102E700020000DF10A01FFF712FE05F1220002A960
:102E8000FFF70DFE05F124000DF10601FFF707FE27
:102E900005F1260001A9FFF702FE94F8BC80B8F105
:102EA000010F11D1BDF80A90B4F8E800B4F8BE6083
:102EB000A9EB0000002100B2A1EB5601884208DA1C
:102EC000D4F8F00001300AE0B4F8BE60BDF80A9012
:102ED00007E07108814204DAD4F8F0000138C4F840
:102EE000F000D4F8F000D4F8B45000FB0690C4F819
:102EF000EC0000F08FFC0746304600F0A3FC0146D2
:102F0000384600F075FB0146064600F0D9FA40F657
:102F1000DB71C4F2490100F011FD294600F068FBA5
:102F20000021C4F8D400C4F2B431304600F006FDEC
:102F3000294600F05DFBBDF90810C4F8D000084632
:102F400000F068FC47F25071C3F6D651064600F017
:102F5000F5FC294600F04CFB0021C4F8D800C4F26F
:102F6000C001304600F0EAFC294600F041FBBDF903
:102F70000610C4F8DC00084600F04CFCBDF9041053
:102F8000C4F8E000084600F045FC49F23331C4F2D1
:102F9000883100F095FAB8F1000FC4E9390904BF8F
:102FA000012084F8BC0003B0BDE8F083D0F8C41061
:102FB0000131C0F8C410FFF754BF0000B0B504469B
:102FC00090F8F800032814D8DFE800F00202151E7C
:102FD000D4F8B810D4F80C0100F00AFBB4F8C01013
:102FE0000546084600F02EFC0146284600F0A6FCE7
:102FF0001FE000201DE0D4F8D810D4F8082104F117
:103000005400C4E9272111E0D4F8D400D4F8041105
:10301000C4E91210204600F026F9E169D4F8D8205E
:1030200004F15400C4F80811C4E9271200F01BF998
:10303000206FC4F8100100F0D1FBD4F8B010000AE2
:103040000870D4F81001D4F8B05000F0C7FB6870D5
:10305000B0BDB0B50D6846F20044DDF814C0C4F24E
:103060000004DDF810E0A54204460AD046F6000050
:10307000C4F2000085420AD140F25C30C2F2000086
:1030800003E040F21830C2F20000C4F8A80008467D
:10309000114684F8AC2084F8F830C4E92DECFFF731
:1030A00091FCC4F8B000B0BDB0B50446D0F8B05043
:1030B000D0F8100100F092FB000A2870D4F810013B
:1030C000D4F8B05000F08AFB6870B0BDB0B50446CB
:1030D00090F8F800032815D8DFE800F00202161B6C
:1030E000D4F8B810D4F80C0100F082FAB4F8C0108B
:1030F0000546084600F0A6FB0146284600F01EFCE7
:1031000001461BE0002119E0D4F80811D4F8182179
:103110000DE0D4F80401D4F81411C4E912012046DA
:1031200000F0A1F8E169D4F81821C4F8081104F1FD
:103130005400C4E9271200F096F8216F2046C4F825
:103140001011BDE8B040FFF7AFBF10B50446B0F8AE
:103150007002B4F87212411A18BF0121A4F8720269
:1031600004F50C7084F86412FFF73DFE2046FFF76B
:1031700025FF04F58A70BDE81040FFF7A7BF2DE9D1
:10318000F04F89B080F8641200270121CDE90017C3
:1031900040F2EC31044600F50C70C2F200010A2244
:1031A00001230297FFF721FE40F2C43904F58A7625
:1031B0000025C2F200094FF08D48C4F220153046B8
:1031C000494601220323CDE90058FFF742FF41F2AF
:1031D0006F2A4EF6000B0025C3F6832AC4F2806BDB
:1031E000C4F2FA4530460021002200230897CDE9B9
:1031F0000075CDE902B7CDE90477CDF818A007979F
:1032000000F02CF904F5B470002100220023089787
:10321000CDE90075CDE902B7CDE90477CDF818A066
:10322000079700F01BF94AF22C06C4F299162046C3
:10323000494602220223CDE90068FFF70AFF04F1A4
:1032400054000021002200230897CDE90075CDE944
:1032500002B7CDE90477CDF818A0079700F0FEF883
:1032600009B0BDE8F08F2DE9F04F83B0D0E91276B8
:10327000044645683846314600F02CFC20F0004AF0
:1032800081465046294600F092F9029630B94FF037
:1032900000094FF0000AA664019600E00197616AF8
:1032A000D4E90F86484600F049FB009040460021D3
:1032B00000F068F90546002830464FF0000118BFBD
:1032C000012500F05FF9002818BF0120054202D057
:1032D0004FF07E5B26E05046414600F06FF9C0B9E2
:1032E0004046514600F063F9A8B95046314600F017
:1032F0005EF980B93046514600F0ECFB0546304699
:10330000414600F0E7FB0146284600F071F983468C
:1033100001E04FF07E5B5046314600F056F908B9A7
:103320004FF0000B666B0021304600F02BF9C0B95E
:10333000A76AD4F8508086F00040394600F058F96A
:1033400005464046294600F040F948B9304639461E
:1033500000F04EF905464046294600F02FF900B925
:103360002565656C0021284600F00CF990B12168B4
:10337000A56A266D584600F0E1FA494600F0DEFAEB
:10338000314600F09DF82946206500F0D7FADDF8B7
:10339000048017E05046294600F009F9DDF8048062
:1033A000002858D12168A56A266D584600F0C6FA53
:1033B000494600F0C3FA314600F082F829462065FC
:1033C00000F0BCFA0546217A04F114022562E66A8F
:1033D000E069002908BF04F11802116808BF4846D7
:1033E00000F078FB0146304600F0A8FA216800F0B2
:1033F000FFF821690646404600F06CFB216B00F0A7
:103400009DFA07460098294600F05AF8314600F028
:1034100057F8394600F054F8A66B0546E06130468F
:10342000002100F0AFF870B986F000472846394611
:1034300000F0CBF828B92846314600F0BFF83746EF
:1034400008B93D46E7610298C4E90559C4E9030893
:1034500003B0BDE8F08F00252565B4E72DE9F047FE
:10346000DDE90F6CDDE90DE7DDE90B980DF1200AD0
:10347000C0E9007600F124069AE8300486E83E04AC
:10348000C0E90F98C0F844E080F808C0BDE8F087B4
:10349000FDF78CFEFFF77AF8FEF738FFFEF714FF12
:1034A000FEF7CDFEFEF7EDFEFFF714F8FEF765FF21
:1034B000FFF747F8FEF7D9FFFFF70DFAFEE7000028
:1034C00090EA010F48BF81F0004100F10A83421ADF
:1034D0003CBF801A89184FEAD052A2EBD1534FF06B
:1034E0007F4C1CEA410F18BF9CEA026F00F03B8042
:1034F0004FF0004C4CEA00204CEA012121FA03FC79
:1035000010EB0C0C1ED202F1FF325FEA1C2040EBE4
:10351000C25038BF70471CF07F0F4FEA400C18BFF5
:10352000BCF17F4F38BF7047C3F12003994008BFFB
:1035300020F00100BCF17F4F38BF7047A0F1C040C0
:1035400000F0C3BA4FEA3C00000A40EBC25028BF6B
:103550001CF0FF0F4FEA400CE6D018BFBCF17F4FC4
:1035600038BF7047EAE79CEA026F05D010EA5C0FAB
:1035700008BF00F00040704710B500F060FA00BFCF
:1035800064FBBE3E10B500F0F5F80CBF0120002032
:1035900010BD10B500F0EEF814BF0120002010BDE2
:1035A00010B500F063F98CBF0120002010BD10B5EC
:1035B00000F05CF92CBF0120002010BD10B500F018
:1035C00089F994BF0120002010BD10B500F082F9E8
:1035D00034BF0120002010BD401058BFC0F1404052
:1035E000491058BFC1F140418142EFF3008070475C
:1035F0004FF47F0C1CEAD0121EBF1CEAD11392EAD2
:103600000C0F93EA0C0F00F0858090EA010F48BF81
:1036100042F4807240F4000C41F400002CF07F4131
:1036200020F07F4000B5A2EB030281420FF2081C9C
:10363000ACEB504E9EF800E0C0F100004FEA4E0E99
:1036400000FB0EFC38BF49004FEA2C1C0CFB0EF3AC
:103650004FEACE1E0EEB635E4FEA112C0EFB0CFC04
:103660004FEAC1214FEA1C5300FB031102F5FA0295
:103670004FEA112C0EFB0CFC4FEA01314FEADC4CF7
:1036800000FB0C1142EB2242C14228BF09184CEB4F
:1036900003335DF804EB10EB410143EBC250B2F58C
:1036A0007C0F38BF704729D512F0F00F1CBF00F116
:1036B000C04000F000407047008182838485868787
:1036C00088898B8C8D8E8F919293959697999A9CE1
:1036D0009D9FA0A2A3A5A7A8AAACAEB0B2B3B5B750
:1036E000B9BCBEC0C2C5C7C9CCCED1D4D7D9DCDF26
:1036F000E2E6E9ECF0F3F7FAFE0000004FEA400CD6
:103700000CF1807CBCF17E4F28BF7047B0F1C04007
:1037100000F0DBB90CEAD11390EA010F48BF42F484
:103720008072624538BF634507D213F47F0F16D00D
:1037300080EA010000F00040704710B500F07FF90A
:10374000097EFC3E00F005B880EA010000F0004070
:10375000704780EA010000F0004000F0B6B912F4B2
:103760007F0F04BF0248704780EA010000F0ADB946
:103770000000C07F50EA010C00F113801CF5000F1F
:1037800058BFBCF5000F01D48842704707D710F529
:10379000000F58BF11F5000F15D4884270478942B9
:1037A00070471CF5000F04D5BCF5000FF7D581421A
:1037B00070474FF0807C1CEB400F38BF1CEB410F73
:1037C00001D28142704710B500F039F992244900C6
:1037D0004FF000504FF08051FFF7FEBE41000B0E3E
:1037E000D3F19E0208D950F400034FEA032323FAD1
:1037F00002F048BF4042704710B500F020F900BF0A
:1038000049922480002070476FF0004282EA200035
:103810007047000010F0004148BF4042B0FA80F30A
:1038200010FA03F2C3F19D030BD051EAC35101EB2F
:103830001220530638BF704700F1010008BF20F086
:1038400001007047B0FA80F310FA03F2C3F19D0350
:103850000AD0D90501EB1220530638BF704700F19A
:10386000010008BF20F001007047000050EA010C81
:1038700000F113801CF5000F58BFBCF5000F01D4F8
:103880008842704707D710F5000F58BF11F5000F99
:1038900015D488427047894270471CF5000F04D543
:1038A000BCF5000FF7D5814270474FF0807C1CEBD0
:1038B000400F38BF1CEB410F01D28142704710B559
:1038C00000F0BDF8922449004FF080504FF00051B5
:1038D000FFF782BE50EA010C00F113801CF5000FC7
:1038E00058BFBCF5000F01D48842704707D710F5C8
:1038F000000F58BF11F5000F15D488427047894258
:1039000070471CF5000F04D5BCF5000FF7D58142B8
:1039100070474FF0807C1CEB400F38BF1CEB410F11
:1039200001D28142704710B500F089F89224490015
:103930004FF000504FF08051FFF74EBE4FF47F0C18
:103940001CEAD0121EBF1CEAD11392EA0C0F93EAB4
:103950000C0F00F0478090EA010F48BF42F48072DC
:103960004FF0004C4CEA00204CEA012102EB03022C
:10397000A0FB0113A2F50002002918BF43F00103C8
:103980005B0028BF4FEA330342EB22425FEA132C6D
:103990004CEBC2502EBFBCEB436FB2F57C0F7047AF
:1039A0004FEA036CBCF1004F08BF20F00100B2F5F4
:1039B0007C0F38BF70470BD582F0FF0212F5803FB5
:1039C000C8BF704700F1C040D8BF00F0004070474A
:1039D00000F5000C5FEA4C0C48BF7047B0F1C040E6
:1039E00000F073B80CEAD11390EA010F48BF42F41B
:1039F0008072624538BF634504D280EA010000F05E
:103A00000040704710B500F01AF800BF8900013E71
:103A100000F007B800F009B85FEA410C5FEA1C6CDF
:103A200008D080EA010000F050B85FEA400C5FEA7D
:103A30001C6CF6D14FF00040A0F5800070470EF1ED
:103A4000020E2EF0030E5EF8044B244204D44FEA1B
:103A50004102B2F17F4F11D84FEA4003B3F17F4FDB
:103A60000CD80ED14FEAD07C0CEB4C0C0CF1020CB4
:103A7000B2F17F4F08BF4CEBD17C04E04FF0080C53
:103A800001E04FEAD17C0CEB4C0324FA03F404F080
:103A90000704B4F1040C06D20EEB840CBDE8104010
:103AA0004CF0010C6047DFE80CF0070802024FF011
:103AB0000040A0F5800010BD0846420018BFD2F1BA
:103AC000807288BF00F0004010BDFF2141EAD05055
:103AD000C005704790EA010F48BF81F000413FF5F3
:103AE000F6AC421A04D882F00042A0EB0200114466
:103AF0004FEAD052A2EBD1534FF07F4C1CEA410F5A
:103B000018BF9CEA026F4AD04FF0004C4CEA0020EC
:103B10004CEA012121FA03FCB0EB0C0C0FD412F09B
:103B2000FE0F36D05FEA4C001DD5001240EBC250AC
:103B300038BF70471CF03F0F18BF70470BE05FEABB
:103B40001C20A2F1010240EBC25038BF70471CF0AC
:103B50007F0F18BF7047C3F12003994014BF401E68
:103B600020F0010070474FEA1223800808BF704719
:103B7000B0FA80FCA2EB0C02CCF1280C60FA0CF03D
:103B800093EA122F04BF00EBC25070474FEAC37094
:103B90007047130A5FEADC1008BF7047F6E79CEA3B
:103BA000026F04D010EA5C0F08BF0020704710B508
:103BB000FFF745FF40DFF63E81F000407047000010
:103BC000E8020020F0020020F802002000000000BF
:103BD00000000000010203040607080900000000BD
:103BE00001020304083C00080000002080020000DD
:103BF000B4010008303C0008800200205009000099
:103C0000F401000800000000460024F4000102C294
:103C10001005370204004002DA03053702040040B1
:103C2000023B0333040502291400000000000000D9
:04000005080001519D
:00000001FF
